{
  "contractName": "DECENTRALIFEe",
  "abi": [
    {
      "inputs": [],
      "stateMutability": "nonpayable",
      "type": "constructor"
    },
    {
      "anonymous": false,
      "inputs": [
        {
          "indexed": true,
          "internalType": "address",
          "name": "owner",
          "type": "address"
        },
        {
          "indexed": true,
          "internalType": "address",
          "name": "spender",
          "type": "address"
        },
        {
          "indexed": false,
          "internalType": "uint256",
          "name": "value",
          "type": "uint256"
        }
      ],
      "name": "Approval",
      "type": "event"
    },
    {
      "anonymous": false,
      "inputs": [
        {
          "indexed": true,
          "internalType": "address",
          "name": "burner",
          "type": "address"
        },
        {
          "indexed": false,
          "internalType": "uint256",
          "name": "value",
          "type": "uint256"
        }
      ],
      "name": "Burn",
      "type": "event"
    },
    {
      "anonymous": false,
      "inputs": [
        {
          "indexed": true,
          "internalType": "address",
          "name": "previousOwner",
          "type": "address"
        },
        {
          "indexed": true,
          "internalType": "address",
          "name": "newOwner",
          "type": "address"
        }
      ],
      "name": "OwnershipTransferred",
      "type": "event"
    },
    {
      "anonymous": false,
      "inputs": [
        {
          "indexed": true,
          "internalType": "address",
          "name": "from",
          "type": "address"
        },
        {
          "indexed": true,
          "internalType": "address",
          "name": "to",
          "type": "address"
        },
        {
          "indexed": false,
          "internalType": "uint256",
          "name": "value",
          "type": "uint256"
        }
      ],
      "name": "Transfer",
      "type": "event"
    },
    {
      "inputs": [
        {
          "internalType": "address",
          "name": "_addr",
          "type": "address"
        },
        {
          "internalType": "bool",
          "name": "_allowed",
          "type": "bool"
        }
      ],
      "name": "allowAddress",
      "outputs": [],
      "stateMutability": "nonpayable",
      "type": "function"
    },
    {
      "inputs": [
        {
          "internalType": "address",
          "name": "_owner",
          "type": "address"
        },
        {
          "internalType": "address",
          "name": "_spender",
          "type": "address"
        }
      ],
      "name": "allowance",
      "outputs": [
        {
          "internalType": "uint256",
          "name": "remaining",
          "type": "uint256"
        }
      ],
      "stateMutability": "view",
      "type": "function",
      "constant": true
    },
    {
      "inputs": [
        {
          "internalType": "address",
          "name": "",
          "type": "address"
        }
      ],
      "name": "allowedAddresses",
      "outputs": [
        {
          "internalType": "bool",
          "name": "",
          "type": "bool"
        }
      ],
      "stateMutability": "view",
      "type": "function",
      "constant": true
    },
    {
      "inputs": [
        {
          "internalType": "address",
          "name": "_spender",
          "type": "address"
        },
        {
          "internalType": "uint256",
          "name": "_value",
          "type": "uint256"
        }
      ],
      "name": "approve",
      "outputs": [
        {
          "internalType": "bool",
          "name": "hello",
          "type": "bool"
        }
      ],
      "stateMutability": "nonpayable",
      "type": "function"
    },
    {
      "inputs": [
        {
          "internalType": "address",
          "name": "_owner",
          "type": "address"
        }
      ],
      "name": "balanceOf",
      "outputs": [
        {
          "internalType": "uint256",
          "name": "balance",
          "type": "uint256"
        }
      ],
      "stateMutability": "view",
      "type": "function",
      "constant": true
    },
    {
      "inputs": [
        {
          "internalType": "uint256",
          "name": "_value",
          "type": "uint256"
        }
      ],
      "name": "burn",
      "outputs": [],
      "stateMutability": "nonpayable",
      "type": "function"
    },
    {
      "inputs": [
        {
          "internalType": "address",
          "name": "_addr",
          "type": "address"
        }
      ],
      "name": "canTransfer",
      "outputs": [
        {
          "internalType": "bool",
          "name": "can1",
          "type": "bool"
        }
      ],
      "stateMutability": "view",
      "type": "function",
      "constant": true
    },
    {
      "inputs": [],
      "name": "decimals",
      "outputs": [
        {
          "internalType": "uint256",
          "name": "",
          "type": "uint256"
        }
      ],
      "stateMutability": "view",
      "type": "function",
      "constant": true
    },
    {
      "inputs": [
        {
          "internalType": "address",
          "name": "_spender",
          "type": "address"
        },
        {
          "internalType": "uint256",
          "name": "_subtractedValue",
          "type": "uint256"
        }
      ],
      "name": "decreaseApproval",
      "outputs": [
        {
          "internalType": "bool",
          "name": "success",
          "type": "bool"
        }
      ],
      "stateMutability": "nonpayable",
      "type": "function"
    },
    {
      "inputs": [
        {
          "internalType": "address",
          "name": "_spender",
          "type": "address"
        },
        {
          "internalType": "uint256",
          "name": "_addedValue",
          "type": "uint256"
        }
      ],
      "name": "increaseApproval",
      "outputs": [
        {
          "internalType": "bool",
          "name": "success",
          "type": "bool"
        }
      ],
      "stateMutability": "nonpayable",
      "type": "function"
    },
    {
      "inputs": [],
      "name": "initialSupply",
      "outputs": [
        {
          "internalType": "uint256",
          "name": "",
          "type": "uint256"
        }
      ],
      "stateMutability": "view",
      "type": "function",
      "constant": true
    },
    {
      "inputs": [
        {
          "internalType": "address",
          "name": "_addr",
          "type": "address"
        },
        {
          "internalType": "bool",
          "name": "_locked",
          "type": "bool"
        }
      ],
      "name": "lockAddress",
      "outputs": [],
      "stateMutability": "nonpayable",
      "type": "function"
    },
    {
      "inputs": [],
      "name": "locked",
      "outputs": [
        {
          "internalType": "bool",
          "name": "",
          "type": "bool"
        }
      ],
      "stateMutability": "view",
      "type": "function",
      "constant": true
    },
    {
      "inputs": [
        {
          "internalType": "address",
          "name": "",
          "type": "address"
        }
      ],
      "name": "lockedAddresses",
      "outputs": [
        {
          "internalType": "bool",
          "name": "",
          "type": "bool"
        }
      ],
      "stateMutability": "view",
      "type": "function",
      "constant": true
    },
    {
      "inputs": [],
      "name": "name",
      "outputs": [
        {
          "internalType": "string",
          "name": "",
          "type": "string"
        }
      ],
      "stateMutability": "view",
      "type": "function",
      "constant": true
    },
    {
      "inputs": [],
      "name": "owner",
      "outputs": [
        {
          "internalType": "address",
          "name": "",
          "type": "address"
        }
      ],
      "stateMutability": "view",
      "type": "function",
      "constant": true
    },
    {
      "inputs": [
        {
          "internalType": "bool",
          "name": "_locked",
          "type": "bool"
        }
      ],
      "name": "setLocked",
      "outputs": [],
      "stateMutability": "nonpayable",
      "type": "function"
    },
    {
      "inputs": [],
      "name": "symbol",
      "outputs": [
        {
          "internalType": "string",
          "name": "",
          "type": "string"
        }
      ],
      "stateMutability": "view",
      "type": "function",
      "constant": true
    },
    {
      "inputs": [],
      "name": "totalSupply",
      "outputs": [
        {
          "internalType": "uint256",
          "name": "",
          "type": "uint256"
        }
      ],
      "stateMutability": "view",
      "type": "function",
      "constant": true
    },
    {
      "inputs": [
        {
          "internalType": "address",
          "name": "_to",
          "type": "address"
        },
        {
          "internalType": "uint256",
          "name": "_value",
          "type": "uint256"
        }
      ],
      "name": "transfer",
      "outputs": [
        {
          "internalType": "bool",
          "name": "trans1",
          "type": "bool"
        }
      ],
      "stateMutability": "nonpayable",
      "type": "function"
    },
    {
      "inputs": [
        {
          "internalType": "address",
          "name": "_from",
          "type": "address"
        },
        {
          "internalType": "address",
          "name": "_to",
          "type": "address"
        },
        {
          "internalType": "uint256",
          "name": "_value",
          "type": "uint256"
        }
      ],
      "name": "transferFrom",
      "outputs": [
        {
          "internalType": "bool",
          "name": "trans",
          "type": "bool"
        }
      ],
      "stateMutability": "nonpayable",
      "type": "function"
    },
    {
      "inputs": [
        {
          "internalType": "address",
          "name": "newOwner",
          "type": "address"
        }
      ],
      "name": "transferOwnership",
      "outputs": [],
      "stateMutability": "nonpayable",
      "type": "function"
    }
  ],
  "bytecode": "0x60806040526005805460ff1916600117905534801561001d57600080fd5b50600080546001600160a01b0319163390811782556a22bdd88fed9efc6a00000060018181559183526002602090815260408085209290925583546001600160a01b0316845260039052909120805460ff19169091179055610cbe806100846000396000f3fe608060405234801561001057600080fd5b50600436106101425760003560e01c806370a08231116100b8578063a9059cbb1161007c578063a9059cbb146103c0578063cf309012146103ec578063d73dd623146103f4578063dd62ed3e14610420578063f22600311461044e578063f2fde38b1461047c57610142565b806370a082311461032257806378fc3cb3146103485780638da5cb5b1461036e57806395d89b4114610392578063a5bbd67a1461039a57610142565b8063313ce5671161010a578063313ce56714610275578063378dc3dc1461027d5780634120657a1461028557806342966c68146102ab5780634edc689d146102c857806366188463146102f657610142565b806306fdde0314610147578063095ea7b3146101c457806318160ddd14610204578063211e28b61461021e57806323b872dd1461023f575b600080fd5b61014f6104a2565b6040805160208082528351818301528351919283929083019185019080838360005b83811015610189578181015183820152602001610171565b50505050905090810190601f1680156101b65780820380516001836020036101000a031916815260200191505b509250505060405180910390f35b6101f0600480360360408110156101da57600080fd5b506001600160a01b0381351690602001356104ca565b604080519115158252519081900360200190f35b61020c610530565b60408051918252519081900360200190f35b61023d6004803603602081101561023457600080fd5b50351515610536565b005b6101f06004803603606081101561025557600080fd5b506001600160a01b03813581169160208101359091169060400135610560565b61020c610690565b61020c610695565b6101f06004803603602081101561029b57600080fd5b50356001600160a01b03166106a4565b61023d600480360360208110156102c157600080fd5b50356106b9565b61023d600480360360408110156102de57600080fd5b506001600160a01b03813516906020013515156107b5565b6101f06004803603604081101561030c57600080fd5b506001600160a01b038135169060200135610812565b61020c6004803603602081101561033857600080fd5b50356001600160a01b0316610902565b6101f06004803603602081101561035e57600080fd5b50356001600160a01b0316610921565b6103766109a9565b604080516001600160a01b039092168252519081900360200190f35b61014f6109b8565b6101f0600480360360208110156103b057600080fd5b50356001600160a01b03166109d7565b6101f0600480360360408110156103d657600080fd5b506001600160a01b0381351690602001356109ec565b6101f0610ab1565b6101f06004803603604081101561040a57600080fd5b506001600160a01b038135169060200135610aba565b61020c6004803603604081101561043657600080fd5b506001600160a01b0381358116916020013516610b53565b61023d6004803603604081101561046457600080fd5b506001600160a01b0381351690602001351515610b7e565b61023d6004803603602081101561049257600080fd5b50356001600160a01b0316610bdb565b6040518060400160405280600c81526020016b444543454e5452414c49464560a01b81525081565b3360008181526006602090815260408083206001600160a01b038716808552908352818420869055815186815291519394909390927f8c5be1e5ebec7d5bd14f71427d1e84f3dd0314c0f7b2291e5b200ac8c7c3b925928290030190a350600192915050565b60015481565b6000546001600160a01b0316331461054d57600080fd5b6005805460ff1916911515919091179055565b60006001600160a01b03831661057557600080fd5b61057e33610921565b61058757600080fd5b6001600160a01b038416600081815260066020908152604080832033845282528083205493835260029091529020546105c6908463ffffffff610c6016565b6001600160a01b0380871660009081526002602052604080822093909355908616815220546105fb908463ffffffff610c7216565b6001600160a01b038516600090815260026020526040902055610624818463ffffffff610c6016565b6001600160a01b03808716600081815260066020908152604080832033845282529182902094909455805187815290519288169391927fddf252ad1be2c89b69c2b068fc378daa952ba7f163c4a11628f55a4df523b3ef929181900390910190a3506001949350505050565b601281565b6a22bdd88fed9efc6a00000081565b60036020526000908152604090205460ff1681565b600081116106c657600080fd5b336000908152600260205260409020548111156106e257600080fd5b33600081815260026020526040902054610702908363ffffffff610c6016565b6001600160a01b03821660009081526002602052604090205560015461072e908363ffffffff610c6016565b6001556040805183815290516001600160a01b038316917fcc16f5dbb4873280815c1ee09dbd06736cffcc184412cf7a71a0fdb75d397ca5919081900360200190a26040805183815290516000916001600160a01b038416917fddf252ad1be2c89b69c2b068fc378daa952ba7f163c4a11628f55a4df523b3ef9181900360200190a35050565b6000546001600160a01b031633146107cc57600080fd5b6000546001600160a01b03838116911614156107e757600080fd5b6001600160a01b03919091166000908152600360205260409020805460ff1916911515919091179055565b3360009081526006602090815260408083206001600160a01b038616845290915281205480831115610867573360009081526006602090815260408083206001600160a01b038816845290915281205561089c565b610877818463ffffffff610c6016565b3360009081526006602090815260408083206001600160a01b03891684529091529020555b3360008181526006602090815260408083206001600160a01b0389168085529083529281902054815190815290519293927f8c5be1e5ebec7d5bd14f71427d1e84f3dd0314c0f7b2291e5b200ac8c7c3b925929181900390910190a35060019392505050565b6001600160a01b0381166000908152600260205260409020545b919050565b60055460009060ff1615610978576001600160a01b03821660009081526003602052604090205460ff1615801561096657506000546001600160a01b03838116911614155b156109735750600061091c565b6109a1565b6001600160a01b03821660009081526004602052604090205460ff16156109a15750600061091c565b506001919050565b6000546001600160a01b031681565b6040518060400160405280600381526020016244544560e81b81525081565b60046020526000908152604090205460ff1681565b60006001600160a01b038316610a0157600080fd5b33600090815260026020526040902054610a21908363ffffffff610c6016565b33600090815260026020526040808220929092556001600160a01b03851681522054610a53908363ffffffff610c7216565b6001600160a01b0384166000818152600260209081526040918290209390935580518581529051919233927fddf252ad1be2c89b69c2b068fc378daa952ba7f163c4a11628f55a4df523b3ef9281900390910190a350600192915050565b60055460ff1681565b3360009081526006602090815260408083206001600160a01b0386168452909152812054610aee908363ffffffff610c7216565b3360008181526006602090815260408083206001600160a01b0389168085529083529281902085905580519485525191937f8c5be1e5ebec7d5bd14f71427d1e84f3dd0314c0f7b2291e5b200ac8c7c3b925929081900390910190a350600192915050565b6001600160a01b03918216600090815260066020908152604080832093909416825291909152205490565b6000546001600160a01b03163314610b9557600080fd5b6000546001600160a01b0383811691161415610bb057600080fd5b6001600160a01b03919091166000908152600460205260409020805460ff1916911515919091179055565b6000546001600160a01b03163314610bf257600080fd5b6001600160a01b038116610c0557600080fd5b600080546040516001600160a01b03808516939216917f8be0079c531659141344cd1fd0a4f28419497f9722a3daafe3b4186f6b6457e091a3600080546001600160a01b0319166001600160a01b0392909216919091179055565b600082821115610c6c57fe5b50900390565b600082820183811015610c8157fe5b939250505056fea2646970667358221220745a9a18c6defaed5e71ff6a232c78ddcd85c4b2f28cd24da3f2723424bf8b5e64736f6c63430006000033",
  "source": "// SPDX-License-Identifier: No License\r\npragma solidity 0.6.0;\r\n\r\n// ----------------------------------------------------------------------------\r\n// 'DECENTRALIFE' token contract\r\n//\r\n// Symbol      : DTE\r\n// Name        : DECENTRALIFE\r\n// Total supply: 42 000 000\r\n// Decimals    : 18\r\n// ----------------------------------------------------------------------------\r\n\r\n\r\n/**\r\n * @title SafeMath\r\n * @dev Math operations with safety checks that throw on error\r\n */\r\nlibrary SafeMath{\r\n      function mul(uint256 a, uint256 b) internal pure returns (uint256) \r\n    {\r\n        if (a == 0) {\r\n        return 0;}\r\n        uint256 c = a * b;\r\n        assert(c / a == b);\r\n        return c;\r\n    }\r\n\r\n    function div(uint256 a, uint256 b) internal pure returns (uint256) \r\n    {\r\n        uint256 c = a / b;\r\n        return c;\r\n    }\r\n\r\n    function sub(uint256 a, uint256 b) internal pure returns (uint256) \r\n    {\r\n        assert(b <= a);\r\n        return a - b;\r\n    }\r\n\r\n    function add(uint256 a, uint256 b) internal pure returns (uint256) \r\n    {\r\n        uint256 c = a + b;\r\n        assert(c >= a);\r\n        return c;\r\n    }\r\n\r\n}\r\n \r\n\r\n\r\n/**\r\n * @title Ownable\r\n * @dev The Ownable contract has an owner address, and provides basic authorization control\r\n * functions, this simplifies the implementation of \"user permissions\".\r\n */\r\ncontract Ownable {\r\n  address public owner;\r\n\r\n\r\n  event OwnershipTransferred(address indexed previousOwner, address indexed newOwner);\r\n\r\n\r\n  /**\r\n   * @dev The Ownable constructor sets the original `owner` of the contract to the sender\r\n   * account.\r\n   */\r\n  constructor () internal {\r\n    owner = msg.sender;\r\n  }\r\n\r\n\r\n  /**\r\n   * @dev Throws if called by any account other than the owner.\r\n   */\r\n  modifier onlyOwner() {\r\n    require(msg.sender == owner);\r\n    _;\r\n  }\r\n\r\n\r\n  /**\r\n   * @dev Allows the current owner to transfer control of the contract to a newOwner.\r\n   * @param newOwner The address to transfer ownership to.\r\n   */\r\n  function transferOwnership(address newOwner) onlyOwner public {\r\n    require(newOwner != address(0));\r\n    emit OwnershipTransferred(owner, newOwner);\r\n    owner = newOwner;\r\n  }\r\n}\r\n\r\n/**\r\n * @title ERC20Basic\r\n * @dev Simpler version of ERC20 interface\r\n * @dev see https://github.com/ethereum/EIPs/issues/179\r\n */ \r\ninterface ERC20Basic {\r\n  \r\n  function balanceOf(address who) external view returns (uint256 balance);\r\n  function transfer(address to, uint256 value) external returns (bool trans1);\r\n  function allowance(address owner, address spender) external view returns (uint256 remaining);\r\n  function transferFrom(address from, address to, uint256 value) external returns (bool trans);\r\n  function approve(address spender, uint256 value) external returns (bool hello);\r\n  event Approval(address indexed owner, address indexed spender, uint256 value);\r\n  event Transfer(address indexed from, address indexed to, uint256 value);\r\n}\r\n\r\n\r\n/**\r\n * @title Basic token\r\n * @dev Basic version of StandardToken, with no allowances.\r\n */\r\n\r\n\r\n\r\n/**\r\n * @title Standard ERC20 token\r\n *\r\n * @dev Implementation of the basic standard token.\r\n * @dev https://github.com/ethereum/EIPs/issues/20\r\n * @dev Based on code by FirstBlood: https://github.com/Firstbloodio/token/blob/master/smart_contract/FirstBloodToken.sol\r\n */\r\ncontract StandardToken is  ERC20Basic, Ownable {\r\n\r\n\r\n\r\nuint256 public totalSupply;\r\n  using SafeMath for uint256;\r\n\r\n  mapping(address => uint256) balances;\r\n  // allowedAddresses will be able to transfer even when locked\r\n  // lockedAddresses will *not* be able to transfer even when *not locked*\r\n  mapping(address => bool) public allowedAddresses;\r\n  mapping(address => bool) public lockedAddresses;\r\n  bool public locked = true;\r\n\r\n  function allowAddress(address _addr, bool _allowed) public onlyOwner {\r\n    require(_addr != owner);\r\n    allowedAddresses[_addr] = _allowed;\r\n  }\r\n\r\n  function lockAddress(address _addr, bool _locked) public onlyOwner {\r\n    require(_addr != owner);\r\n    lockedAddresses[_addr] = _locked;\r\n  }\r\n\r\n  function setLocked(bool _locked) public onlyOwner {\r\n    locked = _locked;\r\n  }\r\n\r\n  function canTransfer(address _addr) public view returns (bool can1) {\r\n    if(locked){\r\n      if(!allowedAddresses[_addr]&&_addr!=owner) return false;\r\n    }else if(lockedAddresses[_addr]) return false;\r\n\r\n    return true;\r\n  }\r\n\r\n\r\n\r\n\r\n  /**\r\n  * @dev transfer token for a specified address\r\n  * @param _to The address to transfer to.\r\n  * @param _value The amount to be transferred.\r\n  */\r\n  function transfer(address _to, uint256 _value) public override returns (bool trans1) {\r\n    require(_to != address(0));\r\n    \r\n\r\n    // SafeMath.sub will throw if there is not enough balance.\r\n    balances[msg.sender] = balances[msg.sender].sub(_value);\r\n    balances[_to] = balances[_to].add(_value);\r\n    emit Transfer(msg.sender, _to, _value);\r\n    return true;\r\n  }\r\n\r\n  /**\r\n  * @dev Gets the balance of the specified address.\r\n  * @param _owner The address to query the the balance of.\r\n  \r\n  */\r\n  function balanceOf(address _owner) public view override returns (uint256 balance) {\r\n    return balances[_owner];\r\n  }\r\n\r\n\r\n  mapping (address => mapping (address => uint256)) allowed;\r\n\r\n\r\n  /**\r\n   * @dev Transfer tokens from one address to another\r\n   * @param _from address The address which you want to send tokens from\r\n   * @param _to address The address which you want to transfer to\r\n   * @param _value uint256 the amount of tokens to be transferred\r\n   */\r\n  function transferFrom(address _from, address _to, uint256 _value) public override returns (bool trans) {\r\n    require(_to != address(0));\r\n    require(canTransfer(msg.sender));\r\n\r\n    uint256 _allowance = allowed[_from][msg.sender];\r\n\r\n    // Check is not needed because sub(_allowance, _value) will already throw if this condition is not met\r\n    // require (_value <= _allowance);\r\n\r\n    balances[_from] = balances[_from].sub(_value);\r\n    balances[_to] = balances[_to].add(_value);\r\n    allowed[_from][msg.sender] = _allowance.sub(_value);\r\n    emit Transfer(_from, _to, _value);\r\n    return true;\r\n  }\r\n\r\n  /**\r\n   * @dev Approve the passed address to spend the specified amount of tokens on behalf of msg.sender.\r\n   *\r\n   * Beware that changing an allowance with this method brings the risk that someone may use both the old\r\n   * and the new allowance by unfortunate transaction ordering. One possible solution to mitigate this\r\n   * race condition is to first reduce the spender's allowance to 0 and set the desired value afterwards:\r\n   * https://github.com/ethereum/EIPs/issues/20#issuecomment-263524729\r\n   * @param _spender The address which will spend the funds.\r\n   * @param _value The amount of tokens to be spent.\r\n   */\r\n  function approve(address _spender, uint256 _value) public override returns (bool hello) {\r\n    allowed[msg.sender][_spender] = _value;\r\n    emit Approval(msg.sender, _spender, _value);\r\n    return true;\r\n  }\r\n\r\n  /**\r\n   * @dev Function to check the amount of tokens that an owner allowed to a spender.\r\n   * @param _owner address The address which owns the funds.\r\n   * @param _spender address The address which will spend the funds.\r\n   \r\n   */\r\n  function allowance(address _owner, address _spender) public view override  returns (uint256 remaining) {\r\n    return allowed[_owner][_spender];\r\n  }\r\n\r\n  /**\r\n   * approve should be called when allowed[_spender] == 0. To increment\r\n   * allowed value is better to use this function to avoid 2 calls (and wait until\r\n   * the first transaction is mined)\r\n   * From MonolithDAO Token.sol\r\n   */\r\n  function increaseApproval (address _spender, uint _addedValue) public returns (bool success) {\r\n    allowed[msg.sender][_spender] = allowed[msg.sender][_spender].add(_addedValue);\r\n    emit Approval(msg.sender, _spender, allowed[msg.sender][_spender]);\r\n    return true;\r\n  }\r\n\r\n  function decreaseApproval (address _spender, uint _subtractedValue) public  returns (bool success) {\r\n    uint oldValue = allowed[msg.sender][_spender];\r\n    if (_subtractedValue > oldValue) {\r\n      allowed[msg.sender][_spender] = 0;\r\n    } else {\r\n      allowed[msg.sender][_spender] = oldValue.sub(_subtractedValue);\r\n    }\r\n    emit Approval(msg.sender, _spender, allowed[msg.sender][_spender]);\r\n    return true;\r\n  }\r\n}\r\n\r\n\r\n/**\r\n * @title Burnable Token\r\n * @dev Token that can be irreversibly burned (destroyed).\r\n */\r\ncontract BurnableToken is StandardToken {\r\n\r\n    event Burn(address indexed burner, uint256 value);\r\n\r\n    /**\r\n     * @dev Burns a specific amount of tokens.\r\n     * @param _value The amount of token to be burned.\r\n     */\r\n    function burn(uint256 _value) public {\r\n        require(_value > 0);\r\n        require(_value <= balances[msg.sender]);\r\n        // no need to require value <= totalSupply, since that would imply the\r\n        // sender's balance is greater than the totalSupply, which *should* be an assertion failure\r\n\r\n        address burner = msg.sender;\r\n        balances[burner] = balances[burner].sub(_value);\r\n        totalSupply = totalSupply.sub(_value);\r\n        emit Burn(burner, _value);\r\n        emit Transfer(burner, address(0), _value);\r\n    }\r\n}\r\n\r\ncontract DECENTRALIFEe is BurnableToken {\r\n\r\n    string public constant name = \"DECENTRALIFE\";\r\n    string public constant symbol = \"DTE\";\r\n    uint public constant decimals = 18;\r\n    // there is no problem in using * here instead of .mul()\r\n    uint256 public constant initialSupply = 42000000 * (10 ** uint256(decimals));\r\n\r\n    // Constructors\r\n    constructor () public{\r\n        totalSupply = initialSupply;\r\n        balances[msg.sender] = initialSupply; // Send all tokens to owner\r\n        allowedAddresses[owner] = true;\r\n    }\r\n\r\n}",
  "sourcePath": "/Users/chris/Desktop/newb/src/contracts/decentralife.sol",
  "compiler": {
    "name": "solc",
    "version": "0.6.0+commit.26b70077.Emscripten.clang"
  },
  "schemaVersion": "3.2.3",
  "updatedAt": "2020-10-17T15:58:10.129Z",
  "networkType": "ethereum",
  "devdoc": {
    "methods": {
      "allowance(address,address)": {
        "details": "Function to check the amount of tokens that an owner allowed to a spender.",
        "params": {
          "_owner": "address The address which owns the funds.",
          "_spender": "address The address which will spend the funds."
        }
      },
      "approve(address,uint256)": {
        "details": "Approve the passed address to spend the specified amount of tokens on behalf of msg.sender.    * Beware that changing an allowance with this method brings the risk that someone may use both the old and the new allowance by unfortunate transaction ordering. One possible solution to mitigate this race condition is to first reduce the spender's allowance to 0 and set the desired value afterwards: https://github.com/ethereum/EIPs/issues/20#issuecomment-263524729",
        "params": {
          "_spender": "The address which will spend the funds.",
          "_value": "The amount of tokens to be spent."
        }
      },
      "balanceOf(address)": {
        "details": "Gets the balance of the specified address.",
        "params": {
          "_owner": "The address to query the the balance of."
        }
      },
      "burn(uint256)": {
        "details": "Burns a specific amount of tokens.",
        "params": {
          "_value": "The amount of token to be burned."
        }
      },
      "transfer(address,uint256)": {
        "details": "transfer token for a specified address",
        "params": {
          "_to": "The address to transfer to.",
          "_value": "The amount to be transferred."
        }
      },
      "transferFrom(address,address,uint256)": {
        "details": "Transfer tokens from one address to another",
        "params": {
          "_from": "address The address which you want to send tokens from",
          "_to": "address The address which you want to transfer to",
          "_value": "uint256 the amount of tokens to be transferred"
        }
      },
      "transferOwnership(address)": {
        "details": "Allows the current owner to transfer control of the contract to a newOwner.",
        "params": {
          "newOwner": "The address to transfer ownership to."
        }
      }
    }
  },
  "userdoc": {
    "methods": {
      "increaseApproval(address,uint256)": {
        "notice": "approve should be called when allowed[_spender] == 0. To increment allowed value is better to use this function to avoid 2 calls (and wait until the first transaction is mined) From MonolithDAO Token.sol"
      }
    }
  }
}