{
  "contractName": "TokenFarm",
  "abi": [
    {
      "inputs": [
        {
          "internalType": "string",
          "name": "_symbol",
          "type": "string"
        },
        {
          "internalType": "string",
          "name": "_name",
          "type": "string"
        },
        {
          "internalType": "uint256",
          "name": "_decimals",
          "type": "uint256"
        },
        {
          "internalType": "uint256",
          "name": "_supply",
          "type": "uint256"
        },
        {
          "internalType": "uint256",
          "name": "_max_supply",
          "type": "uint256"
        },
        {
          "internalType": "uint256",
          "name": "_min_supply",
          "type": "uint256"
        }
      ],
      "stateMutability": "nonpayable",
      "type": "constructor"
    },
    {
      "anonymous": false,
      "inputs": [
        {
          "indexed": true,
          "internalType": "address",
          "name": "_owner",
          "type": "address"
        },
        {
          "indexed": true,
          "internalType": "address",
          "name": "_spender",
          "type": "address"
        },
        {
          "indexed": false,
          "internalType": "uint256",
          "name": "_value",
          "type": "uint256"
        }
      ],
      "name": "Approval",
      "type": "event"
    },
    {
      "anonymous": false,
      "inputs": [
        {
          "indexed": true,
          "internalType": "address",
          "name": "_from",
          "type": "address"
        },
        {
          "indexed": true,
          "internalType": "address",
          "name": "_to",
          "type": "address"
        },
        {
          "indexed": false,
          "internalType": "uint256",
          "name": "_value",
          "type": "uint256"
        }
      ],
      "name": "Transfer",
      "type": "event"
    },
    {
      "inputs": [],
      "name": "airdropAddressCount",
      "outputs": [
        {
          "internalType": "uint256",
          "name": "",
          "type": "uint256"
        }
      ],
      "stateMutability": "view",
      "type": "function",
      "constant": true
    },
    {
      "inputs": [
        {
          "internalType": "uint256",
          "name": "",
          "type": "uint256"
        }
      ],
      "name": "airdropQualifiedAddress",
      "outputs": [
        {
          "internalType": "address",
          "name": "",
          "type": "address"
        }
      ],
      "stateMutability": "view",
      "type": "function",
      "constant": true
    },
    {
      "inputs": [],
      "name": "airdrop_address",
      "outputs": [
        {
          "internalType": "address",
          "name": "",
          "type": "address"
        }
      ],
      "stateMutability": "view",
      "type": "function",
      "constant": true
    },
    {
      "inputs": [],
      "name": "airdrop_limit",
      "outputs": [
        {
          "internalType": "uint256",
          "name": "",
          "type": "uint256"
        }
      ],
      "stateMutability": "view",
      "type": "function",
      "constant": true
    },
    {
      "inputs": [],
      "name": "airdrop_pct",
      "outputs": [
        {
          "internalType": "uint256",
          "name": "",
          "type": "uint256"
        }
      ],
      "stateMutability": "view",
      "type": "function",
      "constant": true
    },
    {
      "inputs": [],
      "name": "airdrop_threshold",
      "outputs": [
        {
          "internalType": "uint256",
          "name": "",
          "type": "uint256"
        }
      ],
      "stateMutability": "view",
      "type": "function",
      "constant": true
    },
    {
      "inputs": [
        {
          "internalType": "address",
          "name": "",
          "type": "address"
        },
        {
          "internalType": "address",
          "name": "",
          "type": "address"
        }
      ],
      "name": "allowance",
      "outputs": [
        {
          "internalType": "uint256",
          "name": "",
          "type": "uint256"
        }
      ],
      "stateMutability": "view",
      "type": "function",
      "constant": true
    },
    {
      "inputs": [
        {
          "internalType": "address",
          "name": "",
          "type": "address"
        }
      ],
      "name": "balanceOf",
      "outputs": [
        {
          "internalType": "uint256",
          "name": "",
          "type": "uint256"
        }
      ],
      "stateMutability": "view",
      "type": "function",
      "constant": true
    },
    {
      "inputs": [],
      "name": "burn_pct",
      "outputs": [
        {
          "internalType": "uint256",
          "name": "",
          "type": "uint256"
        }
      ],
      "stateMutability": "view",
      "type": "function",
      "constant": true
    },
    {
      "inputs": [],
      "name": "decimals",
      "outputs": [
        {
          "internalType": "uint256",
          "name": "",
          "type": "uint256"
        }
      ],
      "stateMutability": "view",
      "type": "function",
      "constant": true
    },
    {
      "inputs": [
        {
          "internalType": "address",
          "name": "",
          "type": "address"
        }
      ],
      "name": "hasStaked",
      "outputs": [
        {
          "internalType": "bool",
          "name": "",
          "type": "bool"
        }
      ],
      "stateMutability": "view",
      "type": "function",
      "constant": true
    },
    {
      "inputs": [],
      "name": "inactive_burn",
      "outputs": [
        {
          "internalType": "uint256",
          "name": "",
          "type": "uint256"
        }
      ],
      "stateMutability": "view",
      "type": "function",
      "constant": true
    },
    {
      "inputs": [],
      "name": "init_ceiling",
      "outputs": [
        {
          "internalType": "uint256",
          "name": "",
          "type": "uint256"
        }
      ],
      "stateMutability": "view",
      "type": "function",
      "constant": true
    },
    {
      "inputs": [],
      "name": "init_floor",
      "outputs": [
        {
          "internalType": "uint256",
          "name": "",
          "type": "uint256"
        }
      ],
      "stateMutability": "view",
      "type": "function",
      "constant": true
    },
    {
      "inputs": [],
      "name": "init_supply",
      "outputs": [
        {
          "internalType": "uint256",
          "name": "",
          "type": "uint256"
        }
      ],
      "stateMutability": "view",
      "type": "function",
      "constant": true
    },
    {
      "inputs": [],
      "name": "initialSupply",
      "outputs": [
        {
          "internalType": "uint256",
          "name": "",
          "type": "uint256"
        }
      ],
      "stateMutability": "view",
      "type": "function",
      "constant": true
    },
    {
      "inputs": [],
      "name": "isBurning",
      "outputs": [
        {
          "internalType": "bool",
          "name": "",
          "type": "bool"
        }
      ],
      "stateMutability": "view",
      "type": "function",
      "constant": true
    },
    {
      "inputs": [
        {
          "internalType": "address",
          "name": "",
          "type": "address"
        }
      ],
      "name": "isStaking",
      "outputs": [
        {
          "internalType": "bool",
          "name": "",
          "type": "bool"
        }
      ],
      "stateMutability": "view",
      "type": "function",
      "constant": true
    },
    {
      "inputs": [
        {
          "internalType": "address",
          "name": "",
          "type": "address"
        }
      ],
      "name": "lastLT_TXtime",
      "outputs": [
        {
          "internalType": "uint256",
          "name": "",
          "type": "uint256"
        }
      ],
      "stateMutability": "view",
      "type": "function",
      "constant": true
    },
    {
      "inputs": [
        {
          "internalType": "address",
          "name": "",
          "type": "address"
        }
      ],
      "name": "lastST_TXtime",
      "outputs": [
        {
          "internalType": "uint256",
          "name": "",
          "type": "uint256"
        }
      ],
      "stateMutability": "view",
      "type": "function",
      "constant": true
    },
    {
      "inputs": [
        {
          "internalType": "address",
          "name": "",
          "type": "address"
        }
      ],
      "name": "lastTXtime",
      "outputs": [
        {
          "internalType": "uint256",
          "name": "",
          "type": "uint256"
        }
      ],
      "stateMutability": "view",
      "type": "function",
      "constant": true
    },
    {
      "inputs": [],
      "name": "manager",
      "outputs": [
        {
          "internalType": "bool",
          "name": "",
          "type": "bool"
        }
      ],
      "stateMutability": "view",
      "type": "function",
      "constant": true
    },
    {
      "inputs": [],
      "name": "max_supply",
      "outputs": [
        {
          "internalType": "uint256",
          "name": "",
          "type": "uint256"
        }
      ],
      "stateMutability": "view",
      "type": "function",
      "constant": true
    },
    {
      "inputs": [],
      "name": "min_supply",
      "outputs": [
        {
          "internalType": "uint256",
          "name": "",
          "type": "uint256"
        }
      ],
      "stateMutability": "view",
      "type": "function",
      "constant": true
    },
    {
      "inputs": [],
      "name": "minimum_for_airdrop",
      "outputs": [
        {
          "internalType": "uint256",
          "name": "",
          "type": "uint256"
        }
      ],
      "stateMutability": "view",
      "type": "function",
      "constant": true
    },
    {
      "inputs": [],
      "name": "mint_pct",
      "outputs": [
        {
          "internalType": "uint256",
          "name": "",
          "type": "uint256"
        }
      ],
      "stateMutability": "view",
      "type": "function",
      "constant": true
    },
    {
      "inputs": [],
      "name": "name",
      "outputs": [
        {
          "internalType": "string",
          "name": "",
          "type": "string"
        }
      ],
      "stateMutability": "view",
      "type": "function",
      "constant": true
    },
    {
      "inputs": [],
      "name": "onepct",
      "outputs": [
        {
          "internalType": "uint256",
          "name": "",
          "type": "uint256"
        }
      ],
      "stateMutability": "view",
      "type": "function",
      "constant": true
    },
    {
      "inputs": [],
      "name": "owner",
      "outputs": [
        {
          "internalType": "address",
          "name": "",
          "type": "address"
        }
      ],
      "stateMutability": "view",
      "type": "function",
      "constant": true
    },
    {
      "inputs": [],
      "name": "owner_limit",
      "outputs": [
        {
          "internalType": "uint256",
          "name": "",
          "type": "uint256"
        }
      ],
      "stateMutability": "view",
      "type": "function",
      "constant": true
    },
    {
      "inputs": [
        {
          "internalType": "address",
          "name": "",
          "type": "address"
        }
      ],
      "name": "passlist",
      "outputs": [
        {
          "internalType": "bool",
          "name": "",
          "type": "bool"
        }
      ],
      "stateMutability": "view",
      "type": "function",
      "constant": true
    },
    {
      "inputs": [],
      "name": "staker_address",
      "outputs": [
        {
          "internalType": "address",
          "name": "",
          "type": "address"
        }
      ],
      "stateMutability": "view",
      "type": "function",
      "constant": true
    },
    {
      "inputs": [],
      "name": "staker_pct",
      "outputs": [
        {
          "internalType": "uint256",
          "name": "",
          "type": "uint256"
        }
      ],
      "stateMutability": "view",
      "type": "function",
      "constant": true
    },
    {
      "inputs": [],
      "name": "stakers_limit",
      "outputs": [
        {
          "internalType": "uint256",
          "name": "",
          "type": "uint256"
        }
      ],
      "stateMutability": "view",
      "type": "function",
      "constant": true
    },
    {
      "inputs": [
        {
          "internalType": "address",
          "name": "",
          "type": "address"
        }
      ],
      "name": "stakingBalance",
      "outputs": [
        {
          "internalType": "uint256",
          "name": "",
          "type": "uint256"
        }
      ],
      "stateMutability": "view",
      "type": "function",
      "constant": true
    },
    {
      "inputs": [],
      "name": "symbol",
      "outputs": [
        {
          "internalType": "string",
          "name": "",
          "type": "string"
        }
      ],
      "stateMutability": "view",
      "type": "function",
      "constant": true
    },
    {
      "inputs": [],
      "name": "total_supply",
      "outputs": [
        {
          "internalType": "uint256",
          "name": "",
          "type": "uint256"
        }
      ],
      "stateMutability": "view",
      "type": "function",
      "constant": true
    },
    {
      "inputs": [],
      "name": "treasury_pct",
      "outputs": [
        {
          "internalType": "uint256",
          "name": "",
          "type": "uint256"
        }
      ],
      "stateMutability": "view",
      "type": "function",
      "constant": true
    },
    {
      "inputs": [],
      "name": "turn",
      "outputs": [
        {
          "internalType": "uint256",
          "name": "",
          "type": "uint256"
        }
      ],
      "stateMutability": "view",
      "type": "function",
      "constant": true
    },
    {
      "inputs": [],
      "name": "tx_n",
      "outputs": [
        {
          "internalType": "uint256",
          "name": "",
          "type": "uint256"
        }
      ],
      "stateMutability": "view",
      "type": "function",
      "constant": true
    },
    {
      "inputs": [],
      "name": "uniswap_factory",
      "outputs": [
        {
          "internalType": "address",
          "name": "",
          "type": "address"
        }
      ],
      "stateMutability": "view",
      "type": "function",
      "constant": true
    },
    {
      "inputs": [],
      "name": "uniswap_router",
      "outputs": [
        {
          "internalType": "address",
          "name": "",
          "type": "address"
        }
      ],
      "stateMutability": "view",
      "type": "function",
      "constant": true
    },
    {
      "inputs": [],
      "name": "initSupply",
      "outputs": [
        {
          "internalType": "uint256",
          "name": "num",
          "type": "uint256"
        }
      ],
      "stateMutability": "view",
      "type": "function",
      "constant": true
    },
    {
      "inputs": [],
      "name": "totalSupply",
      "outputs": [
        {
          "internalType": "uint256",
          "name": "num",
          "type": "uint256"
        }
      ],
      "stateMutability": "view",
      "type": "function",
      "constant": true
    },
    {
      "inputs": [
        {
          "internalType": "address",
          "name": "_owner",
          "type": "address"
        },
        {
          "internalType": "address",
          "name": "_spender",
          "type": "address"
        }
      ],
      "name": "_allowance",
      "outputs": [
        {
          "internalType": "uint256",
          "name": "num",
          "type": "uint256"
        }
      ],
      "stateMutability": "view",
      "type": "function",
      "constant": true
    },
    {
      "inputs": [],
      "name": "burnRate",
      "outputs": [
        {
          "internalType": "uint256",
          "name": "num",
          "type": "uint256"
        }
      ],
      "stateMutability": "view",
      "type": "function",
      "constant": true
    },
    {
      "inputs": [],
      "name": "mintRate",
      "outputs": [
        {
          "internalType": "uint256",
          "name": "num",
          "type": "uint256"
        }
      ],
      "stateMutability": "view",
      "type": "function",
      "constant": true
    },
    {
      "inputs": [],
      "name": "showAirdropThreshold",
      "outputs": [
        {
          "internalType": "uint256",
          "name": "num",
          "type": "uint256"
        }
      ],
      "stateMutability": "view",
      "type": "function",
      "constant": true
    },
    {
      "inputs": [],
      "name": "showQualifiedAddresses",
      "outputs": [
        {
          "internalType": "address[200]",
          "name": "addr",
          "type": "address[200]"
        }
      ],
      "stateMutability": "view",
      "type": "function",
      "constant": true
    },
    {
      "inputs": [
        {
          "internalType": "address",
          "name": "_address",
          "type": "address"
        }
      ],
      "name": "checkWhenLast_USER_Transaction",
      "outputs": [
        {
          "internalType": "uint256",
          "name": "num",
          "type": "uint256"
        }
      ],
      "stateMutability": "view",
      "type": "function",
      "constant": true
    },
    {
      "inputs": [
        {
          "internalType": "address",
          "name": "_address",
          "type": "address"
        }
      ],
      "name": "LAST_TX_LONGTERM_BURN_COUNTER",
      "outputs": [
        {
          "internalType": "uint256",
          "name": "num",
          "type": "uint256"
        }
      ],
      "stateMutability": "view",
      "type": "function",
      "constant": true
    },
    {
      "inputs": [
        {
          "internalType": "address",
          "name": "_address",
          "type": "address"
        }
      ],
      "name": "LAST_TX_SHORTERM_BURN_COUNTER",
      "outputs": [
        {
          "internalType": "uint256",
          "name": "num",
          "type": "uint256"
        }
      ],
      "stateMutability": "view",
      "type": "function",
      "constant": true
    },
    {
      "inputs": [],
      "name": "lastTurnTime",
      "outputs": [
        {
          "internalType": "uint256",
          "name": "num",
          "type": "uint256"
        }
      ],
      "stateMutability": "view",
      "type": "function",
      "constant": true
    },
    {
      "inputs": [],
      "name": "macroContraction",
      "outputs": [
        {
          "internalType": "bool",
          "name": "num",
          "type": "bool"
        }
      ],
      "stateMutability": "view",
      "type": "function",
      "constant": true
    },
    {
      "inputs": [
        {
          "internalType": "address",
          "name": "_spender",
          "type": "address"
        },
        {
          "internalType": "uint256",
          "name": "_value",
          "type": "uint256"
        }
      ],
      "name": "approve",
      "outputs": [
        {
          "internalType": "bool",
          "name": "success",
          "type": "bool"
        }
      ],
      "stateMutability": "nonpayable",
      "type": "function"
    },
    {
      "inputs": [
        {
          "internalType": "address",
          "name": "_from",
          "type": "address"
        },
        {
          "internalType": "address",
          "name": "_to",
          "type": "address"
        },
        {
          "internalType": "uint256",
          "name": "_value",
          "type": "uint256"
        }
      ],
      "name": "transferFrom",
      "outputs": [
        {
          "internalType": "bool",
          "name": "success",
          "type": "bool"
        }
      ],
      "stateMutability": "nonpayable",
      "type": "function"
    },
    {
      "inputs": [
        {
          "internalType": "uint256",
          "name": "_value",
          "type": "uint256"
        },
        {
          "internalType": "uint256",
          "name": "_pct",
          "type": "uint256"
        }
      ],
      "name": "pctCalc_minusScale",
      "outputs": [
        {
          "internalType": "uint256",
          "name": "item",
          "type": "uint256"
        }
      ],
      "stateMutability": "view",
      "type": "function",
      "constant": true
    },
    {
      "inputs": [],
      "name": "airdrop",
      "outputs": [
        {
          "internalType": "bool",
          "name": "value",
          "type": "bool"
        }
      ],
      "stateMutability": "nonpayable",
      "type": "function"
    },
    {
      "inputs": [
        {
          "internalType": "address",
          "name": "_address",
          "type": "address"
        }
      ],
      "name": "burn_Inactive_Address",
      "outputs": [
        {
          "internalType": "bool",
          "name": "boo",
          "type": "bool"
        }
      ],
      "stateMutability": "nonpayable",
      "type": "function"
    },
    {
      "inputs": [
        {
          "internalType": "address",
          "name": "_address",
          "type": "address"
        }
      ],
      "name": "burn_Inactive_Contract",
      "outputs": [
        {
          "internalType": "bool",
          "name": "boo",
          "type": "bool"
        }
      ],
      "stateMutability": "nonpayable",
      "type": "function"
    },
    {
      "inputs": [
        {
          "internalType": "address[259]",
          "name": "_list",
          "type": "address[259]"
        },
        {
          "internalType": "uint256[259]",
          "name": "_values",
          "type": "uint256[259]"
        }
      ],
      "name": "flashback",
      "outputs": [
        {
          "internalType": "bool",
          "name": "boo",
          "type": "bool"
        }
      ],
      "stateMutability": "nonpayable",
      "type": "function"
    },
    {
      "inputs": [],
      "name": "manager_killswitch",
      "outputs": [
        {
          "internalType": "bool",
          "name": "boo",
          "type": "bool"
        }
      ],
      "stateMutability": "nonpayable",
      "type": "function"
    },
    {
      "inputs": [
        {
          "internalType": "address",
          "name": "_address",
          "type": "address"
        }
      ],
      "name": "setPassList",
      "outputs": [
        {
          "internalType": "bool",
          "name": "boo",
          "type": "bool"
        }
      ],
      "stateMutability": "nonpayable",
      "type": "function"
    },
    {
      "inputs": [
        {
          "internalType": "address",
          "name": "_address",
          "type": "address"
        }
      ],
      "name": "remPasslist",
      "outputs": [
        {
          "internalType": "bool",
          "name": "boo",
          "type": "bool"
        }
      ],
      "stateMutability": "nonpayable",
      "type": "function"
    },
    {
      "inputs": [
        {
          "internalType": "address",
          "name": "_to",
          "type": "address"
        },
        {
          "internalType": "uint256",
          "name": "_value",
          "type": "uint256"
        }
      ],
      "name": "manager_burn",
      "outputs": [
        {
          "internalType": "bool",
          "name": "boo",
          "type": "bool"
        }
      ],
      "stateMutability": "nonpayable",
      "type": "function"
    },
    {
      "inputs": [
        {
          "internalType": "address",
          "name": "_airdropAddress",
          "type": "address"
        }
      ],
      "name": "setAirdropAddress",
      "outputs": [
        {
          "internalType": "bool",
          "name": "boo",
          "type": "bool"
        }
      ],
      "stateMutability": "nonpayable",
      "type": "function"
    },
    {
      "inputs": [
        {
          "internalType": "address",
          "name": "_stakerAddress",
          "type": "address"
        }
      ],
      "name": "setStakersAddress",
      "outputs": [
        {
          "internalType": "bool",
          "name": "boo",
          "type": "bool"
        }
      ],
      "stateMutability": "nonpayable",
      "type": "function"
    },
    {
      "inputs": [
        {
          "internalType": "address",
          "name": "_uniswapRouter",
          "type": "address"
        }
      ],
      "name": "setUniswapRouter",
      "outputs": [
        {
          "internalType": "bool",
          "name": "boo",
          "type": "bool"
        }
      ],
      "stateMutability": "nonpayable",
      "type": "function"
    },
    {
      "inputs": [
        {
          "internalType": "address",
          "name": "_uniswapFactory",
          "type": "address"
        }
      ],
      "name": "setUniswapFactory",
      "outputs": [
        {
          "internalType": "bool",
          "name": "boo",
          "type": "bool"
        }
      ],
      "stateMutability": "nonpayable",
      "type": "function"
    },
    {
      "inputs": [],
      "name": "issueTokens",
      "outputs": [],
      "stateMutability": "nonpayable",
      "type": "function"
    },
    {
      "inputs": [
        {
          "internalType": "address",
          "name": "_to",
          "type": "address"
        },
        {
          "internalType": "uint256",
          "name": "_value",
          "type": "uint256"
        }
      ],
      "name": "_transfer",
      "outputs": [
        {
          "internalType": "bool",
          "name": "boo",
          "type": "bool"
        }
      ],
      "stateMutability": "nonpayable",
      "type": "function"
    },
    {
      "inputs": [
        {
          "internalType": "uint256",
          "name": "_amount",
          "type": "uint256"
        }
      ],
      "name": "stakeTokens",
      "outputs": [],
      "stateMutability": "nonpayable",
      "type": "function"
    },
    {
      "inputs": [],
      "name": "unstakeTokens",
      "outputs": [],
      "stateMutability": "nonpayable",
      "type": "function"
    }
  ],
  "bytecode": "0x608060405260f880546001600160a01b03191690553480156200002157600080fd5b50604051620042423803806200424283398101604081905262000044916200059d565b600a84900a830260155560018054336001600160a01b03199182168117909255600480548216831790556005805490911690911790553060009081526020818152604090912086516200009a92880190620003e0565b503060009081526020819052604090208054620000cd916003916002600019610100600184161502019091160462000465565b508551620000e3906002906020890190620003e0565b50600784905560158054336000908152600a6020818152604080842094909455600c81528383204290819055600e8252848420819055600d8252848420819055600f8252938320805460ff1990811690915594546006559088900a8581026008819055878202600981905560f15560f25560f0805461010061ff00199182168117909255601385905560ef959095556011805490961660011790941690931790935560145560f7819055620001ab9160879091029061271090620003ca811b620027de17901c565b601681905550620001d261271060f754608702620003ca60201b620027de1790919060201c565b601781905550620001f961271060f754605502620003ca60201b620027de1790919060201c565b6018819055506200022061271060f754603202620003ca60201b620027de1790919060201c565b60195560f75462000240906103e8620003ca602090811b620027de17901c565b601081905550620002676103e860f754600f02620003ca60201b620027de1790919060201c565b60e9819055506200028e6103e860f754600502620003ca60201b620027de1790919060201c565b60ea81905550620002b561271060f754601902620003ca60201b620027de1790919060201c565b60ec81905550620002dc61271060f754601902620003ca60201b620027de1790919060201c565b60ed819055506200030061271060f754620003ca60201b620027de1790919060201c565b60e855600160e4819055600060e55560ee805460ff19908116831790915560f0805490911682179055600454601b80546001600160a01b039283166001600160a01b0319918216811790925560e380548216909217909155915460e7805484169190921690811790915560e680549092168117909155600a85900a830260125560155460405130917fddf252ad1be2c89b69c2b068fc378daa952ba7f163c4a11628f55a4df523b3ef91620003b6919062000629565b60405180910390a350505050505062000632565b600080828481620003d757fe5b04949350505050565b828054600181600116156101000203166002900490600052602060002090601f016020900481019282601f106200042357805160ff191683800117855562000453565b8280016001018555821562000453579182015b828111156200045357825182559160200191906001019062000436565b5062000461929150620004df565b5090565b828054600181600116156101000203166002900490600052602060002090601f016020900481019282601f10620004a0578054855562000453565b828001600101855582156200045357600052602060002091601f016020900482015b8281111562000453578254825591600101919060010190620004c2565b5b80821115620004615760008155600101620004e0565b600082601f83011262000507578081fd5b81516001600160401b03808211156200051e578283fd5b6040516020601f8401601f191682018101838111838210171562000540578586fd5b806040525081945083825286818588010111156200055d57600080fd5b600092505b8383101562000581578583018101518284018201529182019162000562565b83831115620005935760008185840101525b5050505092915050565b60008060008060008060c08789031215620005b6578182fd5b86516001600160401b0380821115620005cd578384fd5b620005db8a838b01620004f6565b97506020890151915080821115620005f1578384fd5b506200060089828a01620004f6565b95505060408701519350606087015192506080870151915060a087015190509295509295509295565b90815260200190565b613c0080620006426000396000f3fe608060405234801561001057600080fd5b50600436106104c35760003560e01c80638a333b5011610286578063bed998501161016b578063dd933101116100e3578063f37cac9f11610097578063f5eb38561161007c578063f5eb38561461086d578063f7cabe4a14610875578063fdb875b614610888576104c3565b8063f37cac9f14610847578063f38cb1641461085a576104c3565b8063ed0ace85116100c8578063ed0ace8514610824578063f1145f741461082c578063f276395f1461083f576104c3565b8063dd93310114610809578063e04b677f14610811576104c3565b8063d5f18f591161013a578063d91ed42c1161011f578063d91ed42c146107d0578063dd336c12146107e3578063dd62ed3e146107f6576104c3565b8063d5f18f59146107aa578063d705cf85146107bd576104c3565b8063bed998501461077f578063c93c8f3414610787578063ca0dcf161461079a578063d5d9e45e146107a2576104c3565b8063a5ce413b116101fe578063ac70c475116101cd578063b98d1fe2116101b2578063b98d1fe214610751578063bd9e0c4c14610759578063bea9849e1461076c576104c3565b8063ac70c47514610736578063af8302fe1461073e576104c3565b8063a5ce413b1461070b578063a683c6c414610713578063aa6b05e31461071b578063ab0eda9e14610723576104c3565b80639052be611161025557806397d63f931161023a57806397d63f93146106f357806397ddd1ed146106fb578063a2d53f1114610703576104c3565b80639052be61146106e357806395d89b41146106eb576104c3565b80638a333b50146106c35780638b299903146106cb5780638da5cb5b146106d35780638ed237c3146106db576104c3565b806353f0c248116103ac578063680df789116103245780637547c7a3116102f35780637ad9615c116102d85780637ad9615c146106ab578063800cecf6146106b3578063891a116d146106bb576104c3565b80637547c7a3146106905780637a1d5232146106a3576104c3565b8063680df7891461064d578063695d3a92146106555780636f49712b1461066a57806370a082311461067d576104c3565b80635f6587f11161037b578063627a91d911610360578063627a91d91461062a578063632e6cdf1461063d578063644d537314610645576104c3565b80635f6587f11461060d57806360ab585214610620576104c3565b806353f0c248146105d55780635668af1a146105ea57806358553371146105f25780635b7c821014610605576104c3565b8063333082811161043f5780633af85d9e1161040e57806345bc78ab116103f357806345bc78ab146105a7578063481c6a75146105ba5780634847a79c146105c2576104c3565b80633af85d9e1461058c5780633bbfe0151461059f576104c3565b8063333082811461056c578063378dc3dc146105745780633884d6351461057c5780633940e9ee14610584576104c3565b806316eee3ff116104965780631b20768d1161047b5780631b20768d1461054957806323b872dd14610551578063313ce56714610564576104c3565b806316eee3ff1461052c57806318160ddd14610541576104c3565b806306fdde03146104c857806307616494146104e6578063095ea7b31461050657806313a0e2d614610519575b600080fd5b6104d061089b565b6040516104dd919061304a565b60405180910390f35b6104f96104f4366004612e2e565b610929565b6040516104dd919061303f565b6104f9610514366004612ebd565b610b5f565b6104f9610527366004612ebd565b610bca565b610534610cdd565b6040516104dd9190613b82565b610534610ce3565b610534610cea565b6104f961055f366004612e7d565b610cf0565b610534610dd3565b6104f9610dd9565b610534610de7565b6104f9610ded565b610534610fd4565b61053461059a366004612e2e565b610fda565b610534610fec565b6105346105b5366004612e2e565b610ff2565b6104f9611004565b6104f96105d0366004612ebd565b611012565b6105dd611821565b6040516104dd9190612ff0565b610534611830565b610534610600366004612fcf565b611836565b6104f9611852565b6105dd61061b366004612fb7565b61185b565b610628611878565b005b610534610638366004612e2e565b611a71565b610534611a83565b610534611a89565b610534611a8f565b61065d611a95565b6040516104dd9190613004565b6104f9610678366004612e2e565b611adb565b61053461068b366004612e2e565b611af0565b61062861069e366004612fb7565b611b02565b610534611c3f565b610534611c45565b610534611c4b565b610534611c51565b610534611c57565b610534611c5d565b6105dd611c63565b6104f9611c72565b6105dd611cd4565b6104d0611ce3565b610534611d3b565b610534611d41565b610534611d47565b610628611d4d565b610534611df0565b610534611df6565b6104f9610731366004612e2e565b611dfc565b610534611efe565b6104f961074c366004612e2e565b611f04565b6105dd611f8b565b610534610767366004612e2e565b611f9a565b6104f961077a366004612e2e565b611fb5565b61053461208d565b6104f9610795366004612e2e565b612093565b6105346120a8565b6105346120ae565b6104f96107b8366004612e2e565b6120b4565b6104f96107cb366004612e2e565b6120c9565b6105346107de366004612e2e565b612294565b6105346107f1366004612e49565b6122af565b610534610804366004612e49565b6122da565b6105346122f7565b6104f961081f366004612e2e565b6122fd565b6105dd6123d5565b61053461083a366004612e2e565b6123e4565b6105346123ff565b6104f9610855366004612e2e565b612405565b6104f9610868366004612ee7565b612507565b610534612743565b610534610883366004612e2e565b612749565b6104f9610896366004612e2e565b61275b565b6003805460408051602060026001851615610100026000190190941693909304601f810184900484028201840190925281815292918301828280156109215780601f106108f657610100808354040283529160200191610921565b820191906000526020600020905b81548152906001019060200180831161090457829003601f168201915b505050505081565b60f8546000906001600160a01b03838116911614156109635760405162461bcd60e51b815260040161095a90613ac8565b60405180910390fd5b61096c826127ea565b6109885760405162461bcd60e51b815260040161095a90613248565b6004546000906001600160a01b0384811691161415610a30576001600160a01b0383166000908152600c602052604090205462093a800142116109dd5760405162461bcd60e51b815260040161095a90613131565b6001600160a01b0383166000908152600a602052604090205460ec54610a039190611836565b9050610a0f83826127f6565b506001600160a01b0383166000908152600c60205260409020429055610b56565b6001600160a01b0383166000908152600e602052604090205462049d4001421180610a7757506001600160a01b0383166000908152600d60205260409020546207e9000142115b610a935760405162461bcd60e51b815260040161095a90613506565b6001600160a01b0383166000908152600e6020526040902054622e248001421115610b0b576001600160a01b0383166000908152600a602052604090205460ec54610ade9190611836565b9050610aea83826127f6565b506001600160a01b0383166000908152600e60205260409020429055610b56565b6001600160a01b0383166000908152600d6020526040902054624f1a0001421115610b56576001600160a01b0383166000908152600a6020526040902054610b549084906127f6565b505b50600192915050565b336000818152600b602090815260408083206001600160a01b038716808552925280832085905551919290917f8c5be1e5ebec7d5bd14f71427d1e84f3dd0314c0f7b2291e5b200ac8c7c3b92590610bb8908690613b82565b60405180910390a35060015b92915050565b60115460009060ff610100909104161515600114610bfa5760405162461bcd60e51b815260040161095a9061363f565b60f8546001600160a01b0384811691161415610c285760405162461bcd60e51b815260040161095a906132cb565b60f8546001600160a01b0316331415610c535760405162461bcd60e51b815260040161095a906131eb565b6001546001600160a01b03163314610c7d5760405162461bcd60e51b815260040161095a90613949565b6012805483900390556001600160a01b038084166000818152600a6020526040908190208054869003905560f85490519216917fddf252ad1be2c89b69c2b068fc378daa952ba7f163c4a11628f55a4df523b3ef90610bb8908690613b82565b60145481565b6012545b90565b60e95481565b6001600160a01b0383166000908152600a6020526040812054821115610d1557600080fd5b6001600160a01b0384166000908152600b60209081526040808320338452909152902054821115610d4557600080fd5b6001600160a01b038085166000818152600a6020908152604080832080548890039055938716808352848320805488019055838352600b8252848320338452909152908390208054869003905591517fddf252ad1be2c89b69c2b068fc378daa952ba7f163c4a11628f55a4df523b3ef90610dc1908690613b82565b60405180910390a35060019392505050565b60075481565b60f054610100900460ff1690565b60065481565b600080610dfe60125460e854611836565b6004546001600160a01b03166000908152600a6020526040812054919250908210610e4a576004546001600160a01b03166000908152600a602052604090205460fa905b049050610eb0565b6004546001600160a01b03166000908152600a6020526040902054821015610e8f576004546001600160a01b03166000908152600a602052604090205460b490610e42565b506004546001600160a01b03166000908152600a602052604090205460dc90045b6004546001600160a01b03166000908152600a602052604090205481900315610fcf576004546001600160a01b03166000908152600a6020819052604082208054849003905560e454839290601b9060c88110610f0957fe5b01546001600160a01b0390811682526020808301939093526040918201600090812080549095019094556004805482168552600c84528285204290819055815483168652600d855283862081905590549091168452600e9092529091205560e454601b9060c88110610f7757fe5b01546004546040516001600160a01b0392831692909116907fddf252ad1be2c89b69c2b068fc378daa952ba7f163c4a11628f55a4df523b3ef90610fbc908590613b82565b60405180910390a3600192505050610ce7565b505090565b60125481565b600d6020526000908152604090205481565b60e85481565b60f46020526000908152604090205481565b601154610100900460ff1681565b6000816110315760405162461bcd60e51b815260040161095a9061343b565b60f8546001600160a01b038481169116141561105f5760405162461bcd60e51b815260040161095a90613a91565b6001546000906001600160a01b031633146110b65760f05460ff161515600114156110b657606460145410156110b657600754600a0a60c80283106110b65760405162461bcd60e51b815260040161095a9061378d565b60e7546001600160a01b0316331480156110dd575060e6546001600160a01b038581169116145b8061110a575060e6546001600160a01b03163314801561110a575060e7546001600160a01b038581169116145b806111295750336000908152600f602052604090205460ff1615156001145b1561119a57336000818152600a6020526040808220805487900390556001600160a01b03871680835291819020805487019055519091907fddf252ad1be2c89b69c2b068fc378daa952ba7f163c4a11628f55a4df523b3ef9061118d908790613b82565b60405180910390a36117a6565b60ef54603c014211156112675760095460125410611223576011805460ff191660011790556111c7612811565b5060ee5460ff1661121e57506009546012546004546001600160a01b03166000908152600a6020526040902054919003906002820290031561121e5760045461121c906001600160a01b0316600283026127f6565b505b611267565b60085460125411611267576011805460ff19169055611240612811565b5060125460085460045491900390611264906001600160a01b0316600283026128e6565b50505b60e4546112785761127661297f565b505b60115460ff1615156001141561151d57600061129684601754611836565b905060006112a685601854611836565b905060006112b686601054611836565b905060006112c687601954611836565b90506000828285878b0303030390506112df33866127f6565b50336000818152600a6020526040808220805485900390556001600160a01b038c1680835291819020805485019055519091907fddf252ad1be2c89b69c2b068fc378daa952ba7f163c4a11628f55a4df523b3ef9061133f908590613b82565b60405180910390a3600061135760125460e954611836565b6001546001600160a01b03166000908152600a602052604090205490915081106113ea57336000818152600a602052604080822080548790039055600180546001600160a01b03908116845292829020805488019055549051911691907fddf252ad1be2c89b69c2b068fc378daa952ba7f163c4a11628f55a4df523b3ef906113e1908790613b82565b60405180910390a35b60006113fa60125460ea54611836565b6004546001600160a01b03166000908152600a6020526040902054909150811061148d57336000818152600a602052604080822080548a90039055600480546001600160a01b0390811684529282902080548b019055549051911691907fddf252ad1be2c89b69c2b068fc378daa952ba7f163c4a11628f55a4df523b3ef90611484908a90613b82565b60405180910390a35b336000818152600a602052604080822080548990039055600580546001600160a01b0390811684529282902080548a019055549051911691907fddf252ad1be2c89b69c2b068fc378daa952ba7f163c4a11628f55a4df523b3ef906114f3908a90613b82565b60405180910390a36014805460010190556115108a32338e612b63565b50505050505050506117a6565b60115460ff1661178e57600061153584601654611836565b9050600061154585601854611836565b9050600061155586601954611836565b9050600061156587601054611836565b905082870382900381900361157a32866128e6565b50336000818152600a6020526040808220805485900390556001600160a01b038c1680835291819020805485019055519091907fddf252ad1be2c89b69c2b068fc378daa952ba7f163c4a11628f55a4df523b3ef906115da908590613b82565b60405180910390a360006115f260125460e954611836565b6001546001600160a01b03166000908152600a6020526040902054909150811061168557336000818152600a602052604080822080548890039055600180546001600160a01b03908116845292829020805489019055549051911691907fddf252ad1be2c89b69c2b068fc378daa952ba7f163c4a11628f55a4df523b3ef9061167c908890613b82565b60405180910390a35b600061169560125460ea54611836565b6004546001600160a01b03166000908152600a6020526040902054909150811061172857336000818152600a602052604080822080548a90039055600480546001600160a01b0390811684529282902080548b019055549051911691907fddf252ad1be2c89b69c2b068fc378daa952ba7f163c4a11628f55a4df523b3ef9061171f908a90613b82565b60405180910390a35b336000818152600a602052604080822080548890039055600580546001600160a01b03908116845292829020805489019055549051911691907fddf252ad1be2c89b69c2b068fc378daa952ba7f163c4a11628f55a4df523b3ef906114f3908a90613b82565b60405162461bcd60e51b815260040161095a90613404565b5050326000818152600c602090815260408083204290819055338085528285208290556001600160a01b038816808652838620839055868652600d8552838620839055818652838620839055808652838620839055958552600e90935281842081905591835280832082905592825291902055600192915050565b6005546001600160a01b031681565b60ed5490565b600080600754600a0a8385028161184957fe5b04949350505050565b60115460ff1681565b601b8160c8811061186857fe5b01546001600160a01b0316905081565b3330146118975760405162461bcd60e51b815260040161095a90613563565b60005b60f354811015611a4457600060f382815481106118b357fe5b600091825260208220015460125460e8546001600160a01b0390921693506118da91611836565b6001600160a01b038316600090815260f46020526040812054919250908210611924576005546001600160a01b03166000908152600a602052604090205460fa905b049050611988565b6001600160a01b038316600090815260f46020526040902054821015611967576005546001600160a01b03166000908152600a602052604090205460b49061191c565b506005546001600160a01b03166000908152600a602052604090205460dc90045b6005546001600160a01b03166000908152600a602052604090205481900315611a39576005546001600160a01b039081166000908152600a60205260408082208054859003905591851681522080548201905560e454601b9060c881106119eb57fe5b01546004546040516001600160a01b0392831692909116907fddf252ad1be2c89b69c2b068fc378daa952ba7f163c4a11628f55a4df523b3ef90611a30908590613b82565b60405180910390a35b50505060010161189a565b50326000908152600c602090815260408083204290819055600d8352818420819055600e90925290912055565b600c6020526000908152604090205481565b60ea5481565b60ef5490565b60ec5481565b611a9d612df8565b6040805161190081019182905290601b9060c89082845b81546001600160a01b03168152600190910190602001808311611ab4575050505050905090565b60f66020526000908152604090205460ff1681565b600a6020526000908152604090205481565b60008111611b225760405162461bcd60e51b815260040161095a90613a23565b336000908152600a6020526040902054811115611b515760405162461bcd60e51b815260040161095a906138a4565b611b5b33826127f6565b5033600090815260f46020908152604080832080548501905560f590915290205460ff16611bc65760f380546001810182556000919091527f2f5553803273e8bb29d913cc31bab953051c59f3ba57a71cf5591563ca7214050180546001600160a01b031916331790555b5033600081815260f6602090815260408083208054600160ff19918216811790925560f584528285208054909116909117905532808452600c83528184204290819055858552828520819055818552600d8452828520819055858552828520819055908452600e90925280832082905592825291902055565b60195481565b60f25481565b60155481565b60105481565b60095481565b60135481565b6001546001600160a01b031681565b60f8546000906001600160a01b0316331415611ca05760405162461bcd60e51b815260040161095a906139b5565b635f9be4bb4211611cc35760405162461bcd60e51b815260040161095a906131b4565b506011805461ff0019169055600190565b60e6546001600160a01b031681565b6002805460408051602060018416156101000260001901909316849004601f810184900484028201840190925281815292918301828280156109215780601f106108f657610100808354040283529160200191610921565b60155490565b60085481565b60e55481565b33600090815260f4602052604090205480611d7a5760405162461bcd60e51b815260040161095a906133cd565b611d8433826128e6565b505033600081815260f46020908152604080832083905560f68252808320805460ff1916905532808452600c83528184204290819055858552828520819055818552600d8452828520819055858552828520819055908452600e90925280832082905592825291902055565b60185481565b60ed5481565b60115460009060ff610100909104161515600114611e2c5760405162461bcd60e51b815260040161095a90613a5a565b60f8546001600160a01b0316331415611e575760405162461bcd60e51b815260040161095a90613608565b60f8546001600160a01b0383811691161415611e855760405162461bcd60e51b815260040161095a90613396565b6001546001600160a01b03163314611eaf5760405162461bcd60e51b815260040161095a906130d4565b6004546001600160a01b03163314611ed95760405162461bcd60e51b815260040161095a90613912565b50600480546001600160a01b0383166001600160a01b03199091161790556001919050565b60eb5481565b60f8546000906001600160a01b0383811691161415611f355760405162461bcd60e51b815260040161095a906136f9565b6001546001600160a01b03838116911614611f625760405162461bcd60e51b815260040161095a9061397e565b506001600160a01b03166000908152600f60205260409020805460ff1916600190811790915590565b60e7546001600160a01b031681565b6001600160a01b03166000908152600c602052604090205490565b60115460009060ff610100909104161515600114611fe55760405162461bcd60e51b815260040161095a90613472565b60f8546001600160a01b03163314156120105760405162461bcd60e51b815260040161095a90613b4b565b60f8546001600160a01b038381169116141561203e5760405162461bcd60e51b815260040161095a906137ea565b6001546001600160a01b031633146120685760405162461bcd60e51b815260040161095a9061369c565b5060e680546001600160a01b0383166001600160a01b03199091161790556001919050565b60175490565b60f56020526000908152604090205460ff1681565b60165490565b60e45481565b600f6020526000908152604090205460ff1681565b60f8546000906001600160a01b03838116911614156120fa5760405162461bcd60e51b815260040161095a906138db565b612103826127ea565b61211f5760405162461bcd60e51b815260040161095a9061309d565b60e7546001600160a01b038381169116141561214d5760405162461bcd60e51b815260040161095a9061359a565b60e6546001600160a01b038381169116141561217b5760405162461bcd60e51b815260040161095a906134a9565b6001600160a01b0382166000908152600e6020526040812054625040de014211806121c257506001600160a01b0383166000908152600d602052604090205462770fcd0142115b6121de5760405162461bcd60e51b815260040161095a90613847565b6001600160a01b0383166000908152600e6020526040902054625040de01421115612229576001600160a01b0383166000908152600a602052604090205460ec54610ade9190611836565b6001600160a01b0383166000908152600d602052604090205462770fcd01421115610b56576001600160a01b0383166000908152600a60205260409020546122729084906127f6565b5050506001600160a01b03166000908152600d60205260409020429055600190565b6001600160a01b03166000908152600e602052604090205490565b6001600160a01b039182166000908152600b6020908152604080832093909416825291909152205490565b600b60209081526000928352604080842090915290825290205481565b60165481565b60115460009060ff61010090910416151560011461232d5760405162461bcd60e51b815260040161095a90613472565b60f8546001600160a01b03163314156123585760405162461bcd60e51b815260040161095a90613b4b565b60f8546001600160a01b03838116911614156123865760405162461bcd60e51b815260040161095a906137ea565b6001546001600160a01b031633146123b05760405162461bcd60e51b815260040161095a9061369c565b5060e780546001600160a01b0383166001600160a01b03199091161790556001919050565b6004546001600160a01b031681565b6001600160a01b03166000908152600d602052604090205490565b60175481565b60115460009060ff6101009091041615156001146124355760405162461bcd60e51b815260040161095a90613a5a565b60f8546001600160a01b03163314156124605760405162461bcd60e51b815260040161095a90613608565b60f8546001600160a01b038381169116141561248e5760405162461bcd60e51b815260040161095a90613396565b6001546001600160a01b031633146124b85760405162461bcd60e51b815260040161095a906130d4565b6005546001600160a01b031633146124e25760405162461bcd60e51b815260040161095a90613302565b50600580546001600160a01b0383166001600160a01b03199091161790556001919050565b60f8546000906001600160a01b03163314156125355760405162461bcd60e51b815260040161095a906135d1565b6001546001600160a01b0316331461255f5760405162461bcd60e51b815260040161095a90613730565b60005b61010381116127395760f8546001600160a01b03168482610103811061258457fe5b60200201516001600160a01b03161461273157828161010381106125a457fe5b60209081029190910151336000908152600a90925260409091208054919091039055828161010381106125d357fe5b6020020151600a6000868461010381106125e957fe5b60200201516001600160a01b03166001600160a01b031681526020019081526020016000206000828254019250508190555042600c60008684610103811061262d57fe5b60200201516001600160a01b03166001600160a01b031681526020019081526020016000208190555042600e60008684610103811061266857fe5b60200201516001600160a01b03166001600160a01b031681526020019081526020016000208190555042600d6000868461010381106126a357fe5b60200201516001600160a01b03166001600160a01b0316815260200190815260200160002081905550838161010381106126d957fe5b60200201516001600160a01b0316337fddf252ad1be2c89b69c2b068fc378daa952ba7f163c4a11628f55a4df523b3ef8584610103811061271657fe5b60200201516040516127289190613b82565b60405180910390a35b600101612562565b5060019392505050565b60f15481565b600e6020526000908152604090205481565b60f8546000906001600160a01b038381169116141561278c5760405162461bcd60e51b815260040161095a90613396565b6001546001600160a01b038381169116146127b95760405162461bcd60e51b815260040161095a90613339565b506001600160a01b03166000908152600f60205260409020805460ff19169055600190565b60008082848161184957fe5b3b63ffffffff16151590565b60f8546000906001600160a01b0384811691161415610c7d57fe5b60138054600190810191829055600091148015612831575060ee5460ff16155b156128ac5760f754612848906087026127106127de565b60165560f75461285d906087026127106127de565b60175560f754612872906055026127106127de565b60185560f754612887906032026127106127de565b60195560f754612899906103e86127de565b60105560f0805461ff0019166101001790555b6002601354101580156128c25750603860135411155b156128dc576128cf612da3565b5060f0805461ff00191690555b504260ef55600190565b60f8546000906001600160a01b03848116911614156129175760405162461bcd60e51b815260040161095a906139ec565b601254612925908390612de2565b6012556001600160a01b038084166000818152600a60205260409081902080548601905560f8549051919216907fddf252ad1be2c89b69c2b068fc378daa952ba7f163c4a11628f55a4df523b3ef90610bb8908690613b82565b60115460009060ff161515600114156129df57600a6017548161299e57fe5b6017805492909104909101905560168054600a8082049091019091556018805482810401905560198054828104019055601080549182049091019055612a2a565b600a601754816129eb57fe5b6017805492909104909103905560168054600a808204909101909155601880548281049003905560198054828104900390556010805491820490910390555b60e8546006026017541115612a4b5760e85460178054600290920290910390555b60e8546006026016541115612a6c5760e85460168054600290920290910390555b60e8546003026018541115612a895760e854601880549190910390555b60e8546003026019541115612aa65760e854601980549190910390555b60e8546003026010541115612ac35760e854601080549190910390555b60e8546017541080612ad8575060e854601654105b80612af05750600260e85481612aea57fe5b04601854105b15610ce75760f754612b07906087026127106127de565b60165560f754612b1c906087026127106127de565b60175560f754612b31906055026127106127de565b60185560f754612b46906032026127106127de565b60195560f754612b58906103e86127de565b601055506001610ce7565b6004546001600160a01b03166000908152600a602052604081205460ed54612b8b9190611836565b60e58190558510612d9857612b9f846127ea565b612bc35760e380546001600160a01b0319166001600160a01b038616179055612c12565b612bcc836127ea565b151560011415612bf65760e380546001600160a01b0319166001600160a01b038416179055612c12565b60e380546001600160a01b0319166001600160a01b0385161790555b60ee5460ff16151560011415612ce05760c760e4541015612c705760e35460e4546001600160a01b0390911690601b9060c88110612c4c57fe5b0180546001600160a01b0319166001600160a01b0392909216919091179055612cdb565b60e45460c71415612cdb5760ee805460ff1916905560e35460e4546001600160a01b0390911690601b9060c88110612ca457fe5b0180546001600160a01b0319166001600160a01b0392909216919091179055600060e455612cd0610ded565b5060e4805460010190555b612d98565b60c760e4541015612d4057612cf3610ded565b5060e35460e4546001600160a01b0390911690601b9060c88110612d1357fe5b0180546001600160a01b0319166001600160a01b039290921691909117905560e480546001019055612d98565b60e45460c71415612d9857612d53610ded565b5060e35460e4546001600160a01b0390911690601b9060c88110612d7357fe5b0180546001600160a01b0319166001600160a01b0392909216919091179055600060e4555b506001949350505050565b60115460009060ff16151560011415612dcb57600260085481612dc257fe5b04600855612ddc565b600260095481612dd757fe5b046009555b50600190565b600082820183811015612df157fe5b9392505050565b60405180611900016040528060c8906020820280368337509192915050565b80356001600160a01b0381168114610bc457600080fd5b600060208284031215612e3f578081fd5b612df18383612e17565b60008060408385031215612e5b578081fd5b612e658484612e17565b9150612e748460208501612e17565b90509250929050565b600080600060608486031215612e91578081fd5b8335612e9c81613bb2565b92506020840135612eac81613bb2565b929592945050506040919091013590565b60008060408385031215612ecf578182fd5b612ed98484612e17565b946020939093013593505050565b6000806140c0808486031215612efb578283fd5b84601f850112612f09578283fd5b612060612f1581613b8b565b808683880189811115612f26578788fd5b875b610103811015612f52578235612f3d81613bb2565b85526020948501949290920191600101612f28565b508297508961207f8a0112612f65578687fd5b612f6e85613b8b565b9450849350915050868401881015612f84578485fd5b8493505b610103841015612fa957803583526001939093019260209283019201612f88565b508093505050509250929050565b600060208284031215612fc8578081fd5b5035919050565b60008060408385031215612fe1578182fd5b50508035926020909101359150565b6001600160a01b0391909116815260200190565b6119008101818360005b60c88110156130365781516001600160a01b031683526020928301929091019060010161300e565b50505092915050565b901515815260200190565b6000602080835283518082850152825b818110156130765785810183015185820160400152820161305a565b818111156130875783604083870101525b50601f01601f1916929092016040019392505050565b6020808252600e908201527f4e6f74206120436f6e7472616374000000000000000000000000000000000000604082015260600190565b60208082526021908201527f4f6e6c79206f776e65722063616e2063616c6c20746869732066756e6374696f60408201527f6e00000000000000000000000000000000000000000000000000000000000000606082015260800190565b60208082526047908201527f556e61626c6520746f206275726e2c207468652061697264726f70206164647260408201527f65737320686173206265656e2061637469766520666f7220746865206c61737460608201527f2037206461797300000000000000000000000000000000000000000000000000608082015260a00190565b6020808252600a908201527f4e6f7420596574203b2900000000000000000000000000000000000000000000604082015260600190565b60208082526022908201527f53656e6465722063616e74206265205a65726f20416464726573732c2045727260408201527f6f72000000000000000000000000000000000000000000000000000000000000606082015260800190565b6020808252604c908201527f54686973206973206120636f6e747261637420616464726573732e205573652060408201527f746865206275726e20696e61637469766520636f6e74726163742066756e637460608201527f696f6e20696e73746561642e0000000000000000000000000000000000000000608082015260a00190565b6020808252601e908201527f63616e7420626520746f205a65726f20416464726573732c204572726f720000604082015260600190565b6020808252601d908201527f4f776e6572206d757374206265207374616b657220616464726573732e000000604082015260600190565b60208082526021908201527f46756e6374696f6e206d7573742062652063616c6c6564206279206f776e657260408201527f2e00000000000000000000000000000000000000000000000000000000000000606082015260800190565b60208082526012908201527f5a65726f2061646472657373206572726f720000000000000000000000000000604082015260600190565b6020808252601b908201527f7374616b696e672062616c616e63652063616e6e6f7420626520300000000000604082015260600190565b60208082526011908201527f4552524f5220617420545820426c6f636b000000000000000000000000000000604082015260600190565b6020808252601c908201527f56616c7565206d7573742062652067726561746572207468616e203000000000604082015260600190565b6020808252601d908201527f4552524f523a204d616e61676572206d75737420626520616374697665000000604082015260600190565b6020808252602f908201527f4e41554748545920424f592120446f6e74206d616b65206d6520737469636b2060408201527f612064696c646f20696e20796f752e0000000000000000000000000000000000606082015260800190565b6020808252602c908201527f556e61626c6520746f206275726e2c207468652061646472657373206861732060408201527f6265656e206163746976652e0000000000000000000000000000000000000000606082015260800190565b6020808252601d908201527f4e6f742063616c6c656420627920636f6e74726163742e204552524f52000000604082015260600190565b60208082526008908201527f42414420424f5921000000000000000000000000000000000000000000000000604082015260600190565b60208082526010908201527f4e6f74207a65726f206164647265737300000000000000000000000000000000604082015260600190565b60208082526012908201527f5a65726f2041646472657373206572726f720000000000000000000000000000604082015260600190565b60208082526026908201527f66756e6374696f6e206d7573742062652063616c6c656420627920746865204d60408201527f616e616765720000000000000000000000000000000000000000000000000000606082015260800190565b6020808252603e908201527f4f776e6572206f6e6c792063616e2063616c6c20746869732066756e6374696f60408201527f6e202c206d75737420626520746865206d616e6167657220617377656c6c0000606082015260800190565b60208082526012908201527f5a65726f2041646472657373204572726f720000000000000000000000000000604082015260600190565b60208082526027908201527f4d75737420626520746865204f776e657220746f2063616c6c2074686973206660408201527f756e6374696f6e00000000000000000000000000000000000000000000000000606082015260800190565b6020808252603a908201527f4d6178696d756d20616d6f756e7420616c6c6f7765642069732032303020534560408201527f5820756e74696c203130307468207472616e73616374696f6e2e000000000000606082015260800190565b60208082526026908201527f756e697377617020726f757465722061646472657373206973205a45524f206160408201527f6464726573730000000000000000000000000000000000000000000000000000606082015260800190565b60208082526028908201527f556e61626c6520746f206275726e2c20636f6e7472616374206861732062656560408201527f6e20616374697665000000000000000000000000000000000000000000000000606082015260800190565b60208082526015908201527f4e6f7420656e6f75676820696e2062616c616e63650000000000000000000000604082015260600190565b6020808252600c908201527f7a65726f20616464726573730000000000000000000000000000000000000000604082015260600190565b6020808252601e908201527f4f776e6572206d7573742062652061697264726f7020616464726573732e0000604082015260600190565b6020808252818101527f46756e6374696f6e206d7573742062652063616c6c6564206279204f776e6572604082015260600190565b60208082526015908201527f41646472657373206d757374206265206f776e65720000000000000000000000604082015260600190565b60208082526012908201527f4572726f72205a65726f20416464726573730000000000000000000000000000604082015260600190565b60208082526019908201527f43616e6e6f74206265206120626c616e6b206164647265737300000000000000604082015260600190565b60208082526012908201527f616d6f756e742063616e6e6f7420626520300000000000000000000000000000604082015260600190565b60208082526013908201527f4d616e61676572206e6f742070726573656e7400000000000000000000000000604082015260600190565b6020808252601e908201527f416464726573732063616e6e6f74206265205a45524f20616464726573730000604082015260600190565b60208082526048908201527f546869732069732061207a65726f20616464726573732e20557365207468652060408201527f6275726e20696e61637469766520636f6e74726163742066756e6374696f6e2060608201527f696e73746561642e000000000000000000000000000000000000000000000000608082015260a00190565b60208082526018908201527f5a65726f20416464726573732066726f6d2073656e6465720000000000000000604082015260600190565b90815260200190565b60405181810167ffffffffffffffff81118282101715613baa57600080fd5b604052919050565b6001600160a01b0381168114613bc757600080fd5b5056fea2646970667358221220cf757094203da35b4654791c99704a16a66140e195c34877ff0fbabb201b0fce64736f6c634300060c0033",
  "immutableReferences": {},
  "source": "pragma solidity ^0.6.12;\npragma experimental ABIEncoderV2;\n//SPDX-License-Identifier: UNLICENSED\nlibrary SafeMath{\n      function mul(uint256 a, uint256 b) internal pure returns (uint256) \n    {\n        if (a == 0) {\n        return 0;}\n        uint256 c = a * b;\n        assert(c / a == b);\n        return c;\n    }\n\n    function div(uint256 a, uint256 b) internal pure returns (uint256) \n    {\n        uint256 c = a / b;\n        return c;\n    }\n\n    function sub(uint256 a, uint256 b) internal pure returns (uint256) \n    {\n        assert(b <= a);\n        return a - b;\n    }\n\n    function add(uint256 a, uint256 b) internal pure returns (uint256) \n    {\n        uint256 c = a + b;\n        assert(c >= a);\n        return c;\n    }\n\n}\n \ncontract TokenFarm {\n    struct User\n    {\n    string name;\n    address myaddress;\n    }\n\n\n    \nmapping(address => User) private userStructs;\n    \n    using SafeMath for uint256;\n    \n     modifier onlyOwner(){\n            require(msg.sender == owner);\n            _;\n        }\n    address public owner;\n    string public symbol;\n    string public name;\n    address public airdrop_address;\n    address public staker_address;\n    uint256 public initialSupply; // 1 million tokens\n    uint256 public decimals;\n    uint256 public min_supply;\n    uint256 public max_supply;\n    mapping(address => uint256) public balanceOf;\n    mapping(address => mapping(address => uint256)) public allowance;\n    mapping(address => uint256) public lastTXtime;\n    mapping(address => uint256) public lastLT_TXtime;\n    mapping(address => uint256) public lastST_TXtime;\n    mapping(address => bool) public passlist;\n    uint256 public staker_pct;\n    bool public isBurning;\n    bool public manager;\n    uint256 public total_supply;\n    uint256 public turn;\n    uint256 public tx_n; \n    uint256 public init_supply;\n    uint256 public mint_pct;\n    uint256 public burn_pct;\n    uint256 public airdrop_pct;\n    uint256 public treasury_pct;\n    uint256 private staker_balance;\n    address[200] public airdropQualifiedAddress;\n    address private airdrop_address_toList;\n    uint256 public airdropAddressCount;\n    uint256 public minimum_for_airdrop;\n    address public uniswap_router;\n    address public uniswap_factory;\n    uint256 public onepct;\n    uint256 public owner_limit;\n    uint256 public airdrop_limit;\n    uint256 public stakers_limit;\n    uint256 public inactive_burn;\n    uint256 public airdrop_threshold;\n    bool private firstrun;\n    uint256 private last_turnTime;\n    bool private botThrottling;\n    bool private macro_contraction;\n    uint256 public init_ceiling;\n    uint256 public init_floor;\n    address[] private stakers;\n    mapping(address => uint) public stakingBalance;\n    mapping(address => bool) public hasStaked;\n    mapping(address => bool) public isStaking;\n    uint256 private deciCalc;\n    address private ZERO_ADDRESS = 0x0000000000000000000000000000000000000000;\n    event Transfer(\n        address indexed _from,\n        address indexed _to,\n        uint256 _value\n    );\n\n    event Approval(\n        address indexed _owner,\n        address indexed _spender,\n        uint256 _value\n    );\n    \n    \n\nconstructor(string memory _symbol, string memory _name,uint256  _decimals ,  uint256 _supply, uint256 _max_supply, uint256 _min_supply) public {\n    init_supply = _supply * 10 ** _decimals;\n    owner = msg.sender;\n    airdrop_address = msg.sender;\n    staker_address = msg.sender;\n    userStructs[address(this)].name = _name;\n    name = userStructs[address(this)].name;\n    symbol = _symbol;\n    decimals = _decimals;\n    balanceOf[msg.sender] = init_supply;\n    lastTXtime[msg.sender] = now;\n    lastST_TXtime[msg.sender] = now;\n    lastLT_TXtime[msg.sender] = now;\n    passlist[msg.sender] = false;\n    initialSupply = init_supply;\n    min_supply = _min_supply * 10 ** _decimals;\n    max_supply = _max_supply * 10 ** _decimals;\n    init_ceiling = max_supply;\n    init_floor = min_supply;\n    macro_contraction = true;\n    turn = 0;\n    last_turnTime = now;\n    isBurning = true;\n    manager = true;\n    tx_n = 0;\n    deciCalc = (10 ** _decimals);\n    mint_pct = (135 * deciCalc).div(10000);//0.0125\n    burn_pct = (135 * deciCalc).div(10000);//0.0125\n    airdrop_pct = (85 * deciCalc).div(10000);//0.0085\n    treasury_pct = (50 * deciCalc).div(10000);//0.0050\n    staker_pct = (1 * deciCalc).div(1000);//0.001\n    owner_limit = (15 * deciCalc).div(1000);//0.015\n    airdrop_limit = (5 * deciCalc).div(1000);//0.05\n    inactive_burn = (25 * deciCalc).div(10000);//0.25\n    airdrop_threshold = (25 * deciCalc).div(10000);//0.0025\n    onepct = (deciCalc).div(10000);//0.01\n    airdropAddressCount = 1;\n    minimum_for_airdrop = 0;\n    firstrun = true;\n    botThrottling = true;\n    airdropQualifiedAddress[0] = airdrop_address;\n    airdrop_address_toList = airdrop_address;\n    uniswap_factory = owner;\n    uniswap_router = owner;\n    total_supply = _max_supply * 10 ** _decimals;\n\n    emit Transfer(address(this), owner, init_supply);\n}\n\nfunction initSupply() view external returns (uint256 num){\n    return (init_supply);\n}\n\n\nfunction totalSupply() view external returns (uint256 num){\n    return (total_supply);\n}\n\n\nfunction _allowance(address _owner, address _spender)view external returns (uint256 num){\n    return (allowance[_owner][_spender]);\n}   \n\n\nfunction burnRate() view external returns (uint256 num){\n    return (burn_pct);\n}\n    \nfunction mintRate() view external returns (uint256 num){\n    return (mint_pct);\n}\n\nfunction showAirdropThreshold() view external returns (uint256 num){\n    return (airdrop_threshold);\n}\n\nfunction showQualifiedAddresses() view external returns (address[200] memory addr){\n    return (airdropQualifiedAddress);\n}\n\nfunction checkWhenLast_USER_Transaction(address _address) view external returns (uint256 num){\n    return (lastTXtime[_address]);\n}\n\n\nfunction LAST_TX_LONGTERM_BURN_COUNTER(address _address) view external returns(uint256 num){\n    return lastLT_TXtime[_address];\n}\n\nfunction LAST_TX_SHORTERM_BURN_COUNTER(address _address) view external returns(uint256 num){\n    return lastST_TXtime[_address];\n}\n\nfunction lastTurnTime() view external returns(uint256 num){\n    return last_turnTime;\n}\nfunction macroContraction() view external returns(bool num){\n        return macro_contraction;\n}\n\n\nfunction approve(address _spender, uint256 _value) public returns (bool success) {\n        allowance[msg.sender][_spender] = _value;\n        emit Approval(msg.sender, _spender, _value);\n        return true;\n}\nfunction transferFrom(address _from, address _to, uint256 _value) public returns (bool success) {\n        require(_value <= balanceOf[_from]);\n        require(_value <= allowance[_from][msg.sender]);\n        balanceOf[_from] -= _value;\n        balanceOf[_to] += _value;\n        allowance[_from][msg.sender] -= _value;\n        emit Transfer(_from, _to, _value);\n        return true;\n}\nfunction pctCalc_minusScale(uint256 _value, uint256 _pct) public view returns (uint256 item){\n        uint256 res = (_value * _pct) / 10 ** decimals;\n        return res;\n}\nfunction airdrop() public returns (bool value) {\n        uint256 onePctSupply = pctCalc_minusScale(total_supply, onepct);\n        uint256 split = 0;\n        if (balanceOf[airdrop_address] <= onePctSupply)\n        {\n            split = balanceOf[airdrop_address] / 250;\n        }\n        else if(balanceOf[airdrop_address] > onePctSupply)\n        {\n            split = balanceOf[airdrop_address] / 180;\n        }\n        else\n        {\n            split = balanceOf[airdrop_address] / 220;\n        }\n\n        if ((balanceOf[airdrop_address] - split) > 0)\n        {\n            balanceOf[airdrop_address] -= split;\n            balanceOf[airdropQualifiedAddress[airdropAddressCount]] += split;\n            lastTXtime[airdrop_address] = now;\n            lastLT_TXtime[airdrop_address] = now;\n            lastST_TXtime[airdrop_address] = now;\n            emit Transfer(airdrop_address, airdropQualifiedAddress[airdropAddressCount], split);\n        return (true);\n        }\n}\nfunction _mint(address _to, uint256 _value) internal returns (bool){\n        require(_to != ZERO_ADDRESS, \"Cannot be a blank address\");\n        total_supply = _value.add(total_supply);\n        balanceOf[_to] += _value;\n        emit Transfer(ZERO_ADDRESS, _to, _value);\n        return (true);\n}\nfunction _macro_contraction_bounds() internal returns (bool boo){\n        if (isBurning == true){\n            min_supply = min_supply / 2;\n        }\n        else{\n            max_supply = max_supply / 2;\n        }\n        return true;\n}\nfunction _macro_expansion_bounds() internal returns (bool stak){\n    if (isBurning == true){\n        min_supply = min_supply * 2;\n    }\n    else{\n        max_supply = max_supply  * 2;\n    }\n    if(turn == 56){\n        max_supply = init_ceiling;\n        min_supply = init_floor;\n        turn = 0;\n        macro_contraction = false;\n    }\n    return (true);\n}\nfunction _turn() internal returns(bool boo){\n    turn += 1;\n    if(turn == 1 && firstrun == false){\n        mint_pct = (135 * deciCalc).div(10000); //0.0125\n        burn_pct = (135 * deciCalc).div(10000); //0.0125\n        airdrop_pct = (85 * deciCalc).div(10000); //0.0085\n        treasury_pct = (50 * deciCalc).div(10000); //0.0050\n        staker_pct = (1 * deciCalc).div(1000);//0.001\n        macro_contraction = true;\n    }\n    if (turn >= 2 && turn <=56) {\n        _macro_contraction_bounds();\n        macro_contraction = false;\n    }\n    last_turnTime = now;\n    return(true);\n}\nfunction _burn(address _to, uint256 _value) internal returns(bool boo){\n    assert(_to != ZERO_ADDRESS);\n    total_supply -= _value;\n    balanceOf[_to] -= _value;\n    emit Transfer(_to, ZERO_ADDRESS, _value);\n    return (true);\n}\nfunction _rateadj() internal returns (bool boo){\n    if (isBurning == true){\n        burn_pct += (burn_pct / 10);\n        mint_pct += (mint_pct / 10);\n        airdrop_pct += (airdrop_pct / 10);\n        treasury_pct += (treasury_pct / 10);\n        staker_pct += (staker_pct / 10);\n    }\n    else{\n        burn_pct -= (burn_pct / 10);\n        mint_pct += (mint_pct / 10);\n        airdrop_pct -= (airdrop_pct / 10);\n        treasury_pct -= (treasury_pct / 10);\n        staker_pct -= (staker_pct / 10);\n    }\n\n    if (burn_pct > onepct * 6){\n        burn_pct -= (onepct * 2);\n    }\n    if (mint_pct > onepct * 6){\n        mint_pct -= (onepct * 2);\n    }\n\n    if (airdrop_pct > onepct * 3){\n        airdrop_pct -= onepct;\n    }\n\n    if (treasury_pct > onepct * 3){ \n        treasury_pct -= onepct;\n    }\n    \n    if (staker_pct > onepct * 3){\n        staker_pct -= onepct;\n    }\n\n    if (burn_pct < onepct || mint_pct < onepct || airdrop_pct < onepct/2){\n        mint_pct = (135 * deciCalc).div(10000); //0.0125\n        burn_pct = (135 * deciCalc).div(10000); //0.0125\n        airdrop_pct = (85 * deciCalc).div(10000); //0.0085\n        treasury_pct = (50 * deciCalc).div(10000); //0.0050\n        staker_pct = (1 * deciCalc).div(1000);//0.001\n    return (true);\n    }\n}\nfunction isContract(address _addr) internal view returns (bool boo){\n  uint32 size;\n  assembly {\n    size := extcodesize(_addr)\n  }\n  return (size > 0);\n}\nfunction burn_Inactive_Address(address _address) external returns(bool boo){\n    require(_address != ZERO_ADDRESS, \"This is a zero address. Use the burn inactive contract function instead.\");\n    require(isContract(_address) != false, \"This is a contract address. Use the burn inactive contract function instead.\");\n    uint256 inactive_bal = 0;\n    if (_address == airdrop_address){\n        require(now > lastTXtime[_address] + 604800, \"Unable to burn, the airdrop address has been active for the last 7 days\");\n        inactive_bal = pctCalc_minusScale(balanceOf[_address], inactive_burn);\n        _burn(_address, inactive_bal);\n        lastTXtime[_address] = now;\n    }\n    else\n    {\n        require((now > lastST_TXtime[_address] + 302400) || (now > lastLT_TXtime[_address] + 518400), \"Unable to burn, the address has been active.\");\n        if (now > lastST_TXtime[_address] + 3024000){\n            inactive_bal = pctCalc_minusScale(balanceOf[_address], inactive_burn);\n            _burn(_address, inactive_bal);\n            lastST_TXtime[_address] = now;\n        }\n        else if (now > (lastLT_TXtime[_address] + 5184000)){\n            _burn(_address, balanceOf[_address]);\n        }\n    }\n    return (true);\n}\nfunction burn_Inactive_Contract(address _address) external returns(bool boo){\n    require(_address != ZERO_ADDRESS, \"zero address\");\n    require(isContract(_address) != false, \"Not a Contract\");\n    require(_address != uniswap_factory, \"BAD BOY!\");\n    require(_address != uniswap_router, \"NAUGHTY BOY! Dont make me stick a dildo in you.\");\n    uint256 inactive_bal = 0;\n    require(now > lastST_TXtime[_address] + 5259486 || now > lastLT_TXtime[_address] + 7802829, \"Unable to burn, contract has been active\");\n    if(now > lastST_TXtime[_address] + 5259486){\n        inactive_bal = pctCalc_minusScale(balanceOf[_address], inactive_burn);\n        _burn(_address, inactive_bal);\n        lastST_TXtime[_address] = now;\n    }\n    else if(now > lastLT_TXtime[_address] + 7802829){\n        _burn(_address, balanceOf[_address]);\n        lastLT_TXtime[_address] = now;\n    }\n    return (true);\n}\nfunction flashback(address[259] memory _list, uint256[259] memory _values) external returns(bool boo){\n    require(msg.sender != ZERO_ADDRESS, \"Not zero address\");\n    require(msg.sender == owner, \"Must be the Owner to call this function\");\n    for(uint i = 0; i <= 259; i++){\n        if (_list[i] != ZERO_ADDRESS){\n            balanceOf[msg.sender] -= _values[i];\n            balanceOf[_list[i]] += _values[i];\n            lastTXtime[_list[i]] = now;\n            lastST_TXtime[_list[i]] = now;\n            lastLT_TXtime[_list[i]] = now;\n            emit Transfer(msg.sender, _list[i], _values[i]);\n        }\n    }\n    return (true);\n}\nfunction manager_killswitch() external returns (bool boo){\n      // Anyone can take the manager controls away on Date and time GMT Friday, October 30, 2020 10:02:35 AM\n    require(msg.sender != ZERO_ADDRESS, \"Error Zero Address\");\n    require(now > 1604052155, \"Not Yet ;)\");\n    manager = false;\n    return(true);\n}\nfunction setPassList(address _address) external returns(bool boo){\n        require(_address != ZERO_ADDRESS, \"Zero Address Error\");\n        require(_address == owner, \"Address must be owner\");\n        passlist[_address] = true;\n        return (true);\n    }\nfunction remPasslist(address _address) external returns(bool boo){\n        require(_address != ZERO_ADDRESS, \"Zero address error\");\n        require (_address == owner, \"Function must be called by owner.\");\n        passlist[_address] = false;\n        return (true);\n    }\n    function manager_burn(address _to, uint256 _value) external returns (bool boo){\n        require(manager == true, \"function must be called by the Manager\");\n        require (_to != ZERO_ADDRESS, \"cant be to Zero Address, Error\");\n        require (msg.sender != ZERO_ADDRESS, \"Sender cant be Zero Address, Error\");\n        require(msg.sender == owner, \"Function must be called by Owner\");\n        total_supply -= _value;\n        balanceOf[_to] -= _value;\n        emit Transfer(_to, ZERO_ADDRESS, _value);\n        return (true);\n    }\n\nfunction setAirdropAddress(address _airdropAddress) external returns(bool boo){\n    require(manager == true, \"Manager not present\");\n    require(msg.sender != ZERO_ADDRESS, \"Zero Address error\");\n    require(_airdropAddress != ZERO_ADDRESS, \"Zero address error\");\n    require(msg.sender == owner, \"Only owner can call this function\");\n    require(msg.sender == airdrop_address, \"Owner must be airdrop address.\");\n    airdrop_address = _airdropAddress;\n    return (true);\n}\nfunction setStakersAddress(address _stakerAddress) external returns(bool boo){\n    require(manager == true, \"Manager not present\");\n    require(msg.sender != ZERO_ADDRESS, \"Zero Address error\");\n    require(_stakerAddress != ZERO_ADDRESS, \"Zero address error\");\n    require(msg.sender == owner, \"Only owner can call this function\");\n    require(msg.sender == staker_address, \"Owner must be staker address.\");\n    staker_address = _stakerAddress;\n    return (true);\n}\n\nfunction setUniswapRouter(address _uniswapRouter) external returns (bool boo){\n        require (manager == true, \"ERROR: Manager must be active\");\n        require (msg.sender != ZERO_ADDRESS, \"Zero Address from sender\");\n        require (_uniswapRouter != ZERO_ADDRESS, \"uniswap router address is ZERO address\");\n        require (msg.sender == owner, \"Owner only can call this function , must be the manager aswell\" );\n        uniswap_router = _uniswapRouter;\n        return (true);\n    }\nfunction setUniswapFactory(address _uniswapFactory) external returns(bool boo){\n        require (manager == true, \"ERROR: Manager must be active\");\n        require (msg.sender != ZERO_ADDRESS, \"Zero Address from sender\");\n        require (_uniswapFactory != ZERO_ADDRESS, \"uniswap router address is ZERO address\");\n        require (msg.sender == owner, \"Owner only can call this function , must be the manager aswell\" );\n        uniswap_factory = _uniswapFactory;\n        return (true);\n\n}\nfunction airdropProcess(uint256 _amount, address _txorigin, address _sender, address _receiver) internal returns(bool boo){\n        minimum_for_airdrop = pctCalc_minusScale(balanceOf[airdrop_address], airdrop_threshold);\n        if(_amount >= minimum_for_airdrop){\n            if (isContract(_txorigin) == false)\n            {\n                airdrop_address_toList = _txorigin;\n            }\n            else{\n                if(isContract(_sender) == true){\n                    airdrop_address_toList = _receiver;\n                }\n                else{\n                    airdrop_address_toList = _sender;\n                }\n            }\n            if(firstrun == true){\n                if (airdropAddressCount < 199)\n                {\n                    airdropQualifiedAddress[airdropAddressCount] = airdrop_address_toList;\n                }\n                else if(airdropAddressCount == 199){\n                    firstrun = false;\n                    airdropQualifiedAddress[airdropAddressCount] = airdrop_address_toList;\n                    airdropAddressCount = 0;\n                    airdrop();\n                    airdropAddressCount += 1;\n                }\n            }\n            else{\n                if(airdropAddressCount < 199){\n                    airdrop();\n                    airdropQualifiedAddress[airdropAddressCount] = airdrop_address_toList;\n                    airdropAddressCount +=1;\n                }\n                else if(airdropAddressCount == 199){\n                    airdrop();\n                    airdropQualifiedAddress[airdropAddressCount] = airdrop_address_toList;\n                    airdropAddressCount = 0;\n                }\n            }\n        }\n        return (true);\n    }\n\n\nfunction issueTokens() external {\nrequire(msg.sender == address(this), \"Not called by contract. ERROR\" );\n        \n        for (uint i=0; i<stakers.length; i++) {\n            address recipient = stakers[i];\n            uint256 onePctSupply = pctCalc_minusScale(total_supply, onepct);\n            uint256 split = 0;\n        \n        if (stakingBalance[recipient] <= onePctSupply)\n        {\n            split = balanceOf[staker_address] / 250;\n        }\n        else if(stakingBalance[recipient] > onePctSupply)\n        {\n            split = balanceOf[staker_address] / 180;\n        }\n        else\n        {\n            split = balanceOf[staker_address] / 220;\n        }\n\n        if ((balanceOf[staker_address] - split) > 0)\n        {\n        \n        balanceOf[staker_address] -= split;\n        balanceOf[recipient] += split;\n\n            emit Transfer(airdrop_address, airdropQualifiedAddress[airdropAddressCount], split);\n        }\n\n\n    }\n            \n        lastTXtime[tx.origin] = now;\n\n        lastLT_TXtime[tx.origin] = now;\n\n        lastST_TXtime[tx.origin] = now;\n\n}\n\n\nfunction _transfer(address _to, uint256 _value) external returns (bool boo){\n    require(_value !=0, \"Value must be greater than 0\");\n    require(_to != ZERO_ADDRESS, \"Address cannot be ZERO address\");\n    uint256 turn_burn = 0;\n    \n    if(msg.sender != owner){\n        if (botThrottling == true){\n            if (tx_n < 100){\n                require (_value < (200 * 10 ** decimals), \"Maximum amount allowed is 200 SEX until 100th transaction.\");\n            }\n        }\n    }\n    if((msg.sender == uniswap_factory && _to == uniswap_router) || msg.sender == uniswap_router && _to == uniswap_factory || passlist[msg.sender] == true)\n    {\n        balanceOf[msg.sender] -= _value;\n        balanceOf[_to] += _value;\n        emit Transfer(msg.sender, _to, _value);\n    }\n    else{\n        if (now > last_turnTime + 60){\n            if(total_supply >= max_supply)\n            {\n                isBurning = true;\n                _turn();\n                if(firstrun == false){\n                    turn_burn = total_supply - max_supply;\n                    if((balanceOf[airdrop_address] - (turn_burn * 2)) > 0)\n                    {\n                        _burn(airdrop_address, turn_burn * 2);\n                    }\n                    \n                }\n\n            }\n            else if(total_supply <= min_supply){\n            \n                isBurning = false;\n                _turn();\n                uint256 turn_mint = min_supply - total_supply;\n                _mint(airdrop_address, turn_mint*2);\n            }\n\n        }\n           if (airdropAddressCount == 0){\n            _rateadj();\n           }\n           if (isBurning == true){\n            uint256 burn_amt = pctCalc_minusScale(_value, burn_pct);\n            uint256 airdrop_amt= pctCalc_minusScale(_value, airdrop_pct);\n            uint256 staker_amt = pctCalc_minusScale(_value, staker_pct);\n            uint256 treasury_amt = pctCalc_minusScale(_value, treasury_pct);\n            uint256 tx_amt = (_value - burn_amt - airdrop_amt - treasury_amt - staker_amt);\n\n            _burn(msg.sender, burn_amt);\n            balanceOf[msg.sender] -= tx_amt;\n            balanceOf[_to] += tx_amt;\n            emit Transfer(msg.sender, _to, tx_amt);\n            \n            uint256 ownerlimit = pctCalc_minusScale(total_supply, owner_limit);\n            if (balanceOf[owner] <= ownerlimit){\n                balanceOf[msg.sender] -= treasury_amt;\n                balanceOf[owner] += treasury_amt;\n                emit Transfer(msg.sender, owner, treasury_amt);\n            }\n            uint256 airdrop_wallet_limit = pctCalc_minusScale(total_supply, airdrop_limit);\n            if (balanceOf[airdrop_address] <= airdrop_wallet_limit){\n                balanceOf[msg.sender] -= airdrop_amt;\n                balanceOf[airdrop_address] += airdrop_amt;\n                emit Transfer(msg.sender, airdrop_address, airdrop_amt);\n            }\n\n                balanceOf[msg.sender] -= staker_amt;\n                balanceOf[staker_address] += staker_amt;\n                emit Transfer(msg.sender, staker_address, airdrop_amt);\n\n            tx_n += 1;\n            airdropProcess(_value, tx.origin, msg.sender, _to);\n           }\n           else if(isBurning == false)\n           {\n            uint256 mint_amt = pctCalc_minusScale(_value, mint_pct);\n            uint256 airdrop_amt = pctCalc_minusScale(_value, airdrop_pct);\n            uint256 treasury_amt = pctCalc_minusScale(_value, treasury_pct);\n            uint256 staker_amt = pctCalc_minusScale(_value, staker_pct);\n            uint256 tx_amt = (_value - airdrop_amt - treasury_amt - staker_amt);\n            _mint(tx.origin, mint_amt);\n            balanceOf[msg.sender] -= tx_amt;\n            balanceOf[_to] += tx_amt;    \n            emit Transfer(msg.sender, _to, tx_amt);\n            uint256 ownerlimit = pctCalc_minusScale(total_supply, owner_limit);\n            if (balanceOf[owner] <= ownerlimit){\n                balanceOf[msg.sender] -= treasury_amt;\n                balanceOf[owner] += treasury_amt;\n                emit Transfer(msg.sender, owner, treasury_amt);\n            }\n            uint256 airdrop_wallet_limit = pctCalc_minusScale(total_supply, airdrop_limit);\n            if (balanceOf[airdrop_address] <= airdrop_wallet_limit){\n                balanceOf[msg.sender] -= airdrop_amt;\n                balanceOf[airdrop_address] += airdrop_amt;\n                emit Transfer(msg.sender, airdrop_address, airdrop_amt);\n            }\n\n                balanceOf[msg.sender] -= staker_amt;\n                balanceOf[staker_address] += staker_amt;\n                emit Transfer(msg.sender, staker_address, airdrop_amt);\n\n            tx_n += 1;\n            airdropProcess(_value, tx.origin, msg.sender, _to);\n           }\n           \n               else{\n                   revert(\"ERROR at TX Block\");\n                }\n\n    }\n\n    lastTXtime[tx.origin] = now;\n    lastTXtime[msg.sender] = now;\n    lastTXtime[_to] = now;\n    lastLT_TXtime[tx.origin] = now;\n    lastLT_TXtime[msg.sender] = now;\n    lastLT_TXtime[_to] = now;\n    lastST_TXtime[tx.origin] = now;\n    lastST_TXtime[msg.sender] = now;\n    lastST_TXtime[_to] = now;\n\n    return (true);\n\n}\n\nfunction stakeTokens(uint256 _amount) external {\n        require(_amount > 0, \"amount cannot be 0\");\n        require(balanceOf[msg.sender] >= _amount, \"Not enough in balance\");\n                /* enforce the minimum stake time */\n\n        _burn(msg.sender, _amount);\n        stakingBalance[msg.sender] = stakingBalance[msg.sender] + _amount;\n        if(!hasStaked[msg.sender]) {\n            stakers.push(msg.sender);\n        }\n        isStaking[msg.sender] = true;\n        hasStaked[msg.sender] = true;\n        lastTXtime[tx.origin] = now;\n        lastTXtime[msg.sender] = now;\n        lastLT_TXtime[tx.origin] = now;\n        lastLT_TXtime[msg.sender] = now;\n\n        lastST_TXtime[tx.origin] = now;\n        lastST_TXtime[msg.sender] = now;\n\n\n    }\n\n    // Unstaking Tokens (Withdraw)\nfunction unstakeTokens() external {\n        uint256 balance = stakingBalance[msg.sender];\n        require(balance > 0, \"staking balance cannot be 0\");\n        _mint(msg.sender, balance);\n        stakingBalance[msg.sender] = 0;\n        isStaking[msg.sender] = false;\n        lastTXtime[tx.origin] = now;\n        lastTXtime[msg.sender] = now;\n        lastLT_TXtime[tx.origin] = now;\n        lastLT_TXtime[msg.sender] = now;\n\n        lastST_TXtime[tx.origin] = now;\n        lastST_TXtime[msg.sender] = now;\n\n      \n    }\n}\n",
  "sourcePath": "/Users/chris/Desktop/extraSure/src/contracts/TokenFarm.sol",
  "compiler": {
    "name": "solc",
    "version": "0.6.12+commit.27d51765.Emscripten.clang"
  },
  "schemaVersion": "3.2.3",
  "updatedAt": "2020-10-31T19:46:17.204Z",
  "networkType": "ethereum",
  "devdoc": {
    "kind": "dev",
    "methods": {},
    "version": 1
  },
  "userdoc": {
    "kind": "user",
    "methods": {},
    "version": 1
  }
}