{
  "contractName": "TokenFarm",
  "abi": [
    {
      "inputs": [
        {
          "internalType": "contract DECENTRALIFEe",
          "name": "_decentralife",
          "type": "address"
        },
        {
          "internalType": "contract DaiToken",
          "name": "_daiToken",
          "type": "address"
        }
      ],
      "stateMutability": "nonpayable",
      "type": "constructor"
    },
    {
      "inputs": [],
      "name": "DECENTRALIFE2",
      "outputs": [
        {
          "internalType": "contract DECENTRALIFEe",
          "name": "",
          "type": "address"
        }
      ],
      "stateMutability": "view",
      "type": "function",
      "constant": true
    },
    {
      "inputs": [],
      "name": "daiToken",
      "outputs": [
        {
          "internalType": "contract DaiToken",
          "name": "",
          "type": "address"
        }
      ],
      "stateMutability": "view",
      "type": "function",
      "constant": true
    },
    {
      "inputs": [
        {
          "internalType": "address",
          "name": "",
          "type": "address"
        }
      ],
      "name": "hasStaked",
      "outputs": [
        {
          "internalType": "bool",
          "name": "",
          "type": "bool"
        }
      ],
      "stateMutability": "view",
      "type": "function",
      "constant": true
    },
    {
      "inputs": [
        {
          "internalType": "address",
          "name": "",
          "type": "address"
        }
      ],
      "name": "isStaking",
      "outputs": [
        {
          "internalType": "bool",
          "name": "",
          "type": "bool"
        }
      ],
      "stateMutability": "view",
      "type": "function",
      "constant": true
    },
    {
      "inputs": [],
      "name": "name",
      "outputs": [
        {
          "internalType": "string",
          "name": "",
          "type": "string"
        }
      ],
      "stateMutability": "view",
      "type": "function",
      "constant": true
    },
    {
      "inputs": [],
      "name": "owner",
      "outputs": [
        {
          "internalType": "address",
          "name": "",
          "type": "address"
        }
      ],
      "stateMutability": "view",
      "type": "function",
      "constant": true
    },
    {
      "inputs": [
        {
          "internalType": "uint256",
          "name": "",
          "type": "uint256"
        }
      ],
      "name": "stakers",
      "outputs": [
        {
          "internalType": "address",
          "name": "",
          "type": "address"
        }
      ],
      "stateMutability": "view",
      "type": "function",
      "constant": true
    },
    {
      "inputs": [
        {
          "internalType": "address",
          "name": "",
          "type": "address"
        }
      ],
      "name": "stakingBalance",
      "outputs": [
        {
          "internalType": "uint256",
          "name": "",
          "type": "uint256"
        }
      ],
      "stateMutability": "view",
      "type": "function",
      "constant": true
    },
    {
      "inputs": [
        {
          "internalType": "uint256",
          "name": "_amount",
          "type": "uint256"
        }
      ],
      "name": "stakeTokens",
      "outputs": [],
      "stateMutability": "nonpayable",
      "type": "function"
    },
    {
      "inputs": [],
      "name": "unstakeTokens",
      "outputs": [],
      "stateMutability": "nonpayable",
      "type": "function"
    },
    {
      "inputs": [],
      "name": "issueTokens",
      "outputs": [],
      "stateMutability": "nonpayable",
      "type": "function"
    }
  ],
  "bytecode": "0x60c0604052600f60808190526e4461707020546f6b656e204661726d60881b60a090815261003091600091906100a9565b5034801561003d57600080fd5b506040516109733803806109738339818101604052604081101561006057600080fd5b508051602090910151600280546001600160a01b039384166001600160a01b0319918216179091556003805493909216928116929092179055600180549091163317905561013c565b828054600181600116156101000203166002900490600052602060002090601f016020900481019282601f106100ea57805160ff1916838001178555610117565b82800160010185558215610117579182015b828111156101175782518255916020019190600101906100fc565b50610123929150610127565b5090565b5b808211156101235760008155600101610128565b6108288061014b6000396000f3fe608060405234801561001057600080fd5b50600436106100a95760003560e01c80638da5cb5b116100715780638da5cb5b146101c4578063a5ce413b146101e8578063be22f546146101f0578063c93c8f34146101f8578063e3ec7b9e1461021e578063fd5e6dd114610226576100a9565b806306fdde03146100ae57806345bc78ab1461012b57806360ab5852146101635780636f49712b1461016d5780637547c7a3146101a7575b600080fd5b6100b6610243565b6040805160208082528351818301528351919283929083019185019080838360005b838110156100f05781810151838201526020016100d8565b50505050905090810190601f16801561011d5780820380516001836020036101000a031916815260200191505b509250505060405180910390f35b6101516004803603602081101561014157600080fd5b50356001600160a01b03166102d1565b60408051918252519081900360200190f35b61016b6102e3565b005b6101936004803603602081101561018357600080fd5b50356001600160a01b03166104d5565b604080519115158252519081900360200190f35b61016b600480360360208110156101bd57600080fd5b50356104ea565b6101cc610659565b604080516001600160a01b039092168252519081900360200190f35b61016b610668565b6101cc610771565b6101936004803603602081101561020e57600080fd5b50356001600160a01b0316610780565b6101cc610795565b6101cc6004803603602081101561023c57600080fd5b50356107a4565b6000805460408051602060026001851615610100026000190190941693909304601f810184900484028201840190925281815292918301828280156102c95780601f1061029e576101008083540402835291602001916102c9565b820191906000526020600020905b8154815290600101906020018083116102ac57829003601f168201915b505050505081565b60056020526000908152604090205481565b6001546001600160a01b03163314610342576040805162461bcd60e51b815260206004820152601860248201527f63616c6c6572206d75737420626520746865206f776e65720000000000000000604482015290519081900360640190fd5b60005b6004548110156104d25760006004828154811061035e57fe5b60009182526020808320909101546001600160a01b0316808352600590915260408220549092506103909060026107cb565b6001600160a01b038316600090815260056020526040812054919250906103b790836107e0565b905080156104c7576002546040805163a9059cbb60e01b81526001600160a01b038681166004830152602482018590529151919092169163a9059cbb9160448083019260209291908290030181600087803b15801561041557600080fd5b505af1158015610429573d6000803e3d6000fd5b505050506040513d602081101561043f57600080fd5b50506002546001546040805163a9059cbb60e01b81526001600160a01b039283166004820152602481018690529051919092169163a9059cbb9160448083019260209291908290030181600087803b15801561049a57600080fd5b505af11580156104ae573d6000803e3d6000fd5b505050506040513d60208110156104c457600080fd5b50505b505050600101610345565b50565b60076020526000908152604090205460ff1681565b60008111610534576040805162461bcd60e51b81526020600482015260126024820152710616d6f756e742063616e6e6f7420626520360741b604482015290519081900360640190fd5b600354604080516323b872dd60e01b81523360048201523060248201526044810184905290516001600160a01b03909216916323b872dd916064808201926020929091908290030181600087803b15801561058e57600080fd5b505af11580156105a2573d6000803e3d6000fd5b505050506040513d60208110156105b857600080fd5b5050336000908152600560209081526040808320805485019055600690915290205460ff1661062457600480546001810182556000919091527f8a35acfbc15ff81a39ae7d344fd709f28e8600b4aa8c65c6b64bfe7fe36bd19b0180546001600160a01b031916331790555b503360009081526007602090815260408083208054600160ff1991821681179092556006909352922080549091169091179055565b6001546001600160a01b031681565b33600090815260056020526040902054806106ca576040805162461bcd60e51b815260206004820152601b60248201527f7374616b696e672062616c616e63652063616e6e6f7420626520300000000000604482015290519081900360640190fd5b6003546040805163a9059cbb60e01b81523360048201526024810184905290516001600160a01b039092169163a9059cbb916044808201926020929091908290030181600087803b15801561071e57600080fd5b505af1158015610732573d6000803e3d6000fd5b505050506040513d602081101561074857600080fd5b505033600090815260056020908152604080832083905560079091529020805460ff1916905550565b6003546001600160a01b031681565b60066020526000908152604090205460ff1681565b6002546001600160a01b031681565b600481815481106107b157fe5b6000918252602090912001546001600160a01b0316905081565b6000808284816107d757fe5b04949350505050565b6000828211156107ec57fe5b5090039056fea26469706673582212202951b0638f4f014bd240bc26eca3829eeee59a42834c3fd4c1f50ddf026b3f4364736f6c634300060c0033",
  "immutableReferences": {},
  "source": "pragma solidity ^0.6.12;\n\nimport \"./decentralife.sol\";\nimport \"./DaiToken.sol\";\n\n\ncontract TokenFarm {\n    using SafeMath for uint256;\n    string public name = \"Dapp Token Farm\";\n    address public owner;\n    DECENTRALIFEe public DECENTRALIFE2;\n    DaiToken public daiToken;\n\n    address[] public stakers;\n    mapping(address => uint256) public stakingBalance;\n    mapping(address => bool) public hasStaked;\n    mapping(address => bool) public isStaking;\n\n    constructor(DECENTRALIFEe _decentralife, DaiToken _daiToken) public {\n        DECENTRALIFE2 = _decentralife;\n        daiToken = _daiToken;\n        owner = msg.sender;\n    }\n\n    function stakeTokens(uint256 _amount) public {\n        // Require amount greater than 0\n        require(_amount > 0, \"amount cannot be 0\");\n\n        // Trasnfer Mock Dai tokens to this contract for staking\n        daiToken.transferFrom(msg.sender, address(this), _amount);\n\n        // Update staking balance\n        stakingBalance[msg.sender] = stakingBalance[msg.sender] + _amount;\n\n        // Add user to stakers array *only* if they haven't staked already\n        if(!hasStaked[msg.sender]) {\n            stakers.push(msg.sender);\n        }\n\n        // Update staking status\n        isStaking[msg.sender] = true;\n        hasStaked[msg.sender] = true;\n    }\n\n    // Unstaking Tokens (Withdraw)\n    function unstakeTokens() public {\n        // Fetch staking balance\n        uint256 balance = stakingBalance[msg.sender];\n\n        // Require amount greater than 0\n        require(balance > 0, \"staking balance cannot be 0\");\n\n        // Transfer Mock Dai tokens to this contract for staking\n        daiToken.transfer(msg.sender, balance);\n\n        // Reset staking balance\n        stakingBalance[msg.sender] = 0;\n\n        // Update staking status\n        isStaking[msg.sender] = false;\n    }\n\n    // Issuing Tokens\nfunction issueTokens() public {\n        // Only owner can call this function\n      require(msg.sender == owner, \"caller must be the owner\");\n\n        // Issue tokens to all stakers\n        for (uint256 i=0; i<stakers.length; i++) {\n            address recipient = stakers[i];\n            uint256 bankCommission = stakingBalance[recipient].div(2);\n            uint256 balance = stakingBalance[recipient].sub(bankCommission);\n            if(balance > 0) {\n                DECENTRALIFE2.transfer(recipient, balance);\n                DECENTRALIFE2.transfer(owner, bankCommission);\n            }\n        }\n    }\n}\n",
  "sourcePath": "/Users/chris/Desktop/StakingDappTruffle 2/src/contracts/TokenFarm.sol",
  "compiler": {
    "name": "solc",
    "version": "0.6.12+commit.27d51765.Emscripten.clang"
  },
  "schemaVersion": "3.2.5",
  "updatedAt": "2020-09-26T22:41:05.482Z",
  "networkType": "ethereum",
  "devdoc": {
    "kind": "dev",
    "methods": {},
    "version": 1
  },
  "userdoc": {
    "kind": "user",
    "methods": {},
    "version": 1
  }
}